{
	"ERC20.sol": {
		"ERC20": {
			"abi": [
				{
					"inputs": [
						{
							"internalType": "string",
							"name": "name_",
							"type": "string"
						},
						{
							"internalType": "string",
							"name": "symbol_",
							"type": "string"
						}
					],
					"stateMutability": "nonpayable",
					"type": "constructor"
				},
				{
					"anonymous": false,
					"inputs": [
						{
							"indexed": true,
							"internalType": "address",
							"name": "owner",
							"type": "address"
						},
						{
							"indexed": true,
							"internalType": "address",
							"name": "spender",
							"type": "address"
						},
						{
							"indexed": false,
							"internalType": "uint256",
							"name": "value",
							"type": "uint256"
						}
					],
					"name": "Approval",
					"type": "event"
				},
				{
					"anonymous": false,
					"inputs": [
						{
							"indexed": true,
							"internalType": "address",
							"name": "from",
							"type": "address"
						},
						{
							"indexed": true,
							"internalType": "address",
							"name": "to",
							"type": "address"
						},
						{
							"indexed": false,
							"internalType": "uint256",
							"name": "value",
							"type": "uint256"
						}
					],
					"name": "Transfer",
					"type": "event"
				},
				{
					"inputs": [
						{
							"internalType": "address",
							"name": "",
							"type": "address"
						},
						{
							"internalType": "address",
							"name": "",
							"type": "address"
						}
					],
					"name": "allowance",
					"outputs": [
						{
							"internalType": "uint256",
							"name": "",
							"type": "uint256"
						}
					],
					"stateMutability": "view",
					"type": "function"
				},
				{
					"inputs": [
						{
							"internalType": "address",
							"name": "spender",
							"type": "address"
						},
						{
							"internalType": "uint256",
							"name": "amount",
							"type": "uint256"
						}
					],
					"name": "approve",
					"outputs": [
						{
							"internalType": "bool",
							"name": "",
							"type": "bool"
						}
					],
					"stateMutability": "nonpayable",
					"type": "function"
				},
				{
					"inputs": [
						{
							"internalType": "address",
							"name": "",
							"type": "address"
						}
					],
					"name": "balanceOf",
					"outputs": [
						{
							"internalType": "uint256",
							"name": "",
							"type": "uint256"
						}
					],
					"stateMutability": "view",
					"type": "function"
				},
				{
					"inputs": [
						{
							"internalType": "uint256",
							"name": "amount",
							"type": "uint256"
						}
					],
					"name": "burn",
					"outputs": [],
					"stateMutability": "nonpayable",
					"type": "function"
				},
				{
					"inputs": [],
					"name": "decimals",
					"outputs": [
						{
							"internalType": "uint8",
							"name": "",
							"type": "uint8"
						}
					],
					"stateMutability": "view",
					"type": "function"
				},
				{
					"inputs": [
						{
							"internalType": "uint256",
							"name": "amount",
							"type": "uint256"
						}
					],
					"name": "mint",
					"outputs": [],
					"stateMutability": "nonpayable",
					"type": "function"
				},
				{
					"inputs": [],
					"name": "name",
					"outputs": [
						{
							"internalType": "string",
							"name": "",
							"type": "string"
						}
					],
					"stateMutability": "view",
					"type": "function"
				},
				{
					"inputs": [],
					"name": "symbol",
					"outputs": [
						{
							"internalType": "string",
							"name": "",
							"type": "string"
						}
					],
					"stateMutability": "view",
					"type": "function"
				},
				{
					"inputs": [],
					"name": "totalSupply",
					"outputs": [
						{
							"internalType": "uint256",
							"name": "",
							"type": "uint256"
						}
					],
					"stateMutability": "view",
					"type": "function"
				},
				{
					"inputs": [
						{
							"internalType": "address",
							"name": "recipient",
							"type": "address"
						},
						{
							"internalType": "uint256",
							"name": "amount",
							"type": "uint256"
						}
					],
					"name": "transfer",
					"outputs": [
						{
							"internalType": "bool",
							"name": "",
							"type": "bool"
						}
					],
					"stateMutability": "nonpayable",
					"type": "function"
				},
				{
					"inputs": [
						{
							"internalType": "address",
							"name": "sender",
							"type": "address"
						},
						{
							"internalType": "address",
							"name": "recipient",
							"type": "address"
						},
						{
							"internalType": "uint256",
							"name": "amount",
							"type": "uint256"
						}
					],
					"name": "transferFrom",
					"outputs": [
						{
							"internalType": "bool",
							"name": "",
							"type": "bool"
						}
					],
					"stateMutability": "nonpayable",
					"type": "function"
				}
			],
			"devdoc": {
				"kind": "dev",
				"methods": {},
				"version": 1
			},
			"evm": {
				"assembly": "    /* \"ERC20.sol\":1517:3573  contract ERC20 is IERC20 {... */\n  mstore(0x40, 0x80)\n    /* \"ERC20.sol\":1827:1853  uint8 public decimals = 18 */\n  0x05\n  dup1\n  sload\n  not(0xff)\n  and\n    /* \"ERC20.sol\":1851:1853  18 */\n  0x12\n    /* \"ERC20.sol\":1827:1853  uint8 public decimals = 18 */\n  or\n  swap1\n  sstore\n    /* \"ERC20.sol\":1943:2056  constructor(string memory name_, string memory symbol_){... */\n  callvalue\n  dup1\n  iszero\n  tag_1\n  jumpi\n  0x00\n  dup1\n  revert\ntag_1:\n  pop\n  mload(0x40)\n  sub(codesize, bytecodeSize)\n  dup1\n  bytecodeSize\n  dup4\n  codecopy\n  dup2\n  add\n  0x40\n  dup2\n  swap1\n  mstore\n  tag_2\n  swap2\n  tag_3\n  jump\t// in\ntag_2:\n    /* \"ERC20.sol\":2009:2013  name */\n  0x03\n    /* \"ERC20.sol\":2009:2021  name = name_ */\n  tag_6\n    /* \"ERC20.sol\":2016:2021  name_ */\n  dup4\n    /* \"ERC20.sol\":2009:2013  name */\n  dup3\n    /* \"ERC20.sol\":2009:2021  name = name_ */\n  tag_7\n  jump\t// in\ntag_6:\n  pop\n    /* \"ERC20.sol\":2032:2038  symbol */\n  0x04\n    /* \"ERC20.sol\":2032:2048  symbol = symbol_ */\n  tag_8\n    /* \"ERC20.sol\":2041:2048  symbol_ */\n  dup3\n    /* \"ERC20.sol\":2032:2038  symbol */\n  dup3\n    /* \"ERC20.sol\":2032:2048  symbol = symbol_ */\n  tag_7\n  jump\t// in\ntag_8:\n  pop\n    /* \"ERC20.sol\":1943:2056  constructor(string memory name_, string memory symbol_){... */\n  pop\n  pop\n    /* \"ERC20.sol\":1517:3573  contract ERC20 is IERC20 {... */\n  jump(tag_16)\n    /* \"#utility.yul\":14:141   */\ntag_10:\n    /* \"#utility.yul\":75:85   */\n  0x4e487b71\n    /* \"#utility.yul\":70:73   */\n  0xe0\n    /* \"#utility.yul\":66:86   */\n  shl\n    /* \"#utility.yul\":63:64   */\n  0x00\n    /* \"#utility.yul\":56:87   */\n  mstore\n    /* \"#utility.yul\":106:110   */\n  0x41\n    /* \"#utility.yul\":103:104   */\n  0x04\n    /* \"#utility.yul\":96:111   */\n  mstore\n    /* \"#utility.yul\":130:134   */\n  0x24\n    /* \"#utility.yul\":127:128   */\n  0x00\n    /* \"#utility.yul\":120:135   */\n  revert\n    /* \"#utility.yul\":146:990   */\ntag_11:\n    /* \"#utility.yul\":200:205   */\n  0x00\n    /* \"#utility.yul\":253:256   */\n  dup3\n    /* \"#utility.yul\":246:250   */\n  0x1f\n    /* \"#utility.yul\":238:244   */\n  dup4\n    /* \"#utility.yul\":234:251   */\n  add\n    /* \"#utility.yul\":230:257   */\n  slt\n    /* \"#utility.yul\":220:275   */\n  tag_19\n  jumpi\n    /* \"#utility.yul\":271:272   */\n  0x00\n    /* \"#utility.yul\":268:269   */\n  dup1\n    /* \"#utility.yul\":261:273   */\n  revert\n    /* \"#utility.yul\":220:275   */\ntag_19:\n    /* \"#utility.yul\":294:307   */\n  dup2\n  mload\n  sub(shl(0x40, 0x01), 0x01)\n    /* \"#utility.yul\":356:366   */\n  dup1\n  dup3\n  gt\n    /* \"#utility.yul\":353:389   */\n  iszero\n  tag_21\n  jumpi\n    /* \"#utility.yul\":369:387   */\n  tag_21\n  tag_10\n  jump\t// in\ntag_21:\n    /* \"#utility.yul\":444:446   */\n  0x40\n    /* \"#utility.yul\":438:447   */\n  mload\n    /* \"#utility.yul\":412:414   */\n  0x1f\n    /* \"#utility.yul\":498:511   */\n  dup4\n  add\n  not(0x1f)\n    /* \"#utility.yul\":494:516   */\n  swap1\n  dup2\n  and\n    /* \"#utility.yul\":518:520   */\n  0x3f\n    /* \"#utility.yul\":490:521   */\n  add\n    /* \"#utility.yul\":486:526   */\n  and\n    /* \"#utility.yul\":474:527   */\n  dup2\n  add\n  swap1\n    /* \"#utility.yul\":542:560   */\n  dup3\n  dup3\n  gt\n    /* \"#utility.yul\":562:584   */\n  dup2\n  dup4\n  lt\n    /* \"#utility.yul\":539:585   */\n  or\n    /* \"#utility.yul\":536:608   */\n  iszero\n  tag_23\n  jumpi\n    /* \"#utility.yul\":588:606   */\n  tag_23\n  tag_10\n  jump\t// in\ntag_23:\n    /* \"#utility.yul\":628:638   */\n  dup2\n    /* \"#utility.yul\":624:626   */\n  0x40\n    /* \"#utility.yul\":617:639   */\n  mstore\n    /* \"#utility.yul\":663:665   */\n  dup4\n    /* \"#utility.yul\":655:661   */\n  dup2\n    /* \"#utility.yul\":648:666   */\n  mstore\n    /* \"#utility.yul\":685:689   */\n  0x20\n    /* \"#utility.yul\":675:689   */\n  swap3\n  pop\n    /* \"#utility.yul\":732:735   */\n  dup7\n    /* \"#utility.yul\":725:729   */\n  0x20\n    /* \"#utility.yul\":720:722   */\n  dup6\n    /* \"#utility.yul\":712:718   */\n  dup9\n    /* \"#utility.yul\":708:723   */\n  add\n    /* \"#utility.yul\":704:730   */\n  add\n    /* \"#utility.yul\":701:736   */\n  gt\n    /* \"#utility.yul\":698:753   */\n  iszero\n  tag_24\n  jumpi\n    /* \"#utility.yul\":749:750   */\n  0x00\n    /* \"#utility.yul\":746:747   */\n  dup1\n    /* \"#utility.yul\":739:751   */\n  revert\n    /* \"#utility.yul\":698:753   */\ntag_24:\n    /* \"#utility.yul\":771:772   */\n  0x00\n    /* \"#utility.yul\":762:772   */\n  swap2\n  pop\n    /* \"#utility.yul\":781:914   */\ntag_25:\n    /* \"#utility.yul\":795:797   */\n  dup4\n    /* \"#utility.yul\":792:793   */\n  dup3\n    /* \"#utility.yul\":789:798   */\n  lt\n    /* \"#utility.yul\":781:914   */\n  iszero\n  tag_27\n  jumpi\n    /* \"#utility.yul\":883:897   */\n  dup6\n  dup3\n  add\n    /* \"#utility.yul\":879:902   */\n  dup4\n  add\n    /* \"#utility.yul\":873:903   */\n  mload\n    /* \"#utility.yul\":852:866   */\n  dup2\n  dup4\n  add\n    /* \"#utility.yul\":848:871   */\n  dup5\n  add\n    /* \"#utility.yul\":841:904   */\n  mstore\n    /* \"#utility.yul\":806:816   */\n  swap1\n  dup3\n  add\n  swap1\n    /* \"#utility.yul\":781:914   */\n  jump(tag_25)\ntag_27:\n    /* \"#utility.yul\":958:959   */\n  0x00\n    /* \"#utility.yul\":951:955   */\n  0x20\n    /* \"#utility.yul\":946:948   */\n  dup6\n    /* \"#utility.yul\":938:944   */\n  dup4\n    /* \"#utility.yul\":934:949   */\n  add\n    /* \"#utility.yul\":930:956   */\n  add\n    /* \"#utility.yul\":923:960   */\n  mstore\n    /* \"#utility.yul\":978:984   */\n  dup1\n    /* \"#utility.yul\":969:984   */\n  swap5\n  pop\n  pop\n  pop\n  pop\n  pop\n    /* \"#utility.yul\":146:990   */\n  swap3\n  swap2\n  pop\n  pop\n  jump\t// out\n    /* \"#utility.yul\":995:1557   */\ntag_3:\n    /* \"#utility.yul\":1094:1100   */\n  0x00\n    /* \"#utility.yul\":1102:1108   */\n  dup1\n    /* \"#utility.yul\":1155:1157   */\n  0x40\n    /* \"#utility.yul\":1143:1152   */\n  dup4\n    /* \"#utility.yul\":1134:1141   */\n  dup6\n    /* \"#utility.yul\":1130:1153   */\n  sub\n    /* \"#utility.yul\":1126:1158   */\n  slt\n    /* \"#utility.yul\":1123:1175   */\n  iszero\n  tag_29\n  jumpi\n    /* \"#utility.yul\":1171:1172   */\n  0x00\n    /* \"#utility.yul\":1168:1169   */\n  dup1\n    /* \"#utility.yul\":1161:1173   */\n  revert\n    /* \"#utility.yul\":1123:1175   */\ntag_29:\n    /* \"#utility.yul\":1198:1214   */\n  dup3\n  mload\n  sub(shl(0x40, 0x01), 0x01)\n    /* \"#utility.yul\":1263:1277   */\n  dup1\n  dup3\n  gt\n    /* \"#utility.yul\":1260:1294   */\n  iszero\n  tag_30\n  jumpi\n    /* \"#utility.yul\":1290:1291   */\n  0x00\n    /* \"#utility.yul\":1287:1288   */\n  dup1\n    /* \"#utility.yul\":1280:1292   */\n  revert\n    /* \"#utility.yul\":1260:1294   */\ntag_30:\n    /* \"#utility.yul\":1313:1374   */\n  tag_31\n    /* \"#utility.yul\":1366:1373   */\n  dup7\n    /* \"#utility.yul\":1357:1363   */\n  dup4\n    /* \"#utility.yul\":1346:1355   */\n  dup8\n    /* \"#utility.yul\":1342:1364   */\n  add\n    /* \"#utility.yul\":1313:1374   */\n  tag_11\n  jump\t// in\ntag_31:\n    /* \"#utility.yul\":1303:1374   */\n  swap4\n  pop\n    /* \"#utility.yul\":1420:1422   */\n  0x20\n    /* \"#utility.yul\":1409:1418   */\n  dup6\n    /* \"#utility.yul\":1405:1423   */\n  add\n    /* \"#utility.yul\":1399:1424   */\n  mload\n    /* \"#utility.yul\":1383:1424   */\n  swap2\n  pop\n    /* \"#utility.yul\":1449:1451   */\n  dup1\n    /* \"#utility.yul\":1439:1447   */\n  dup3\n    /* \"#utility.yul\":1436:1452   */\n  gt\n    /* \"#utility.yul\":1433:1469   */\n  iszero\n  tag_32\n  jumpi\n    /* \"#utility.yul\":1465:1466   */\n  0x00\n    /* \"#utility.yul\":1462:1463   */\n  dup1\n    /* \"#utility.yul\":1455:1467   */\n  revert\n    /* \"#utility.yul\":1433:1469   */\ntag_32:\n  pop\n    /* \"#utility.yul\":1488:1551   */\n  tag_33\n    /* \"#utility.yul\":1543:1550   */\n  dup6\n    /* \"#utility.yul\":1532:1540   */\n  dup3\n    /* \"#utility.yul\":1521:1530   */\n  dup7\n    /* \"#utility.yul\":1517:1541   */\n  add\n    /* \"#utility.yul\":1488:1551   */\n  tag_11\n  jump\t// in\ntag_33:\n    /* \"#utility.yul\":1478:1551   */\n  swap2\n  pop\n  pop\n    /* \"#utility.yul\":995:1557   */\n  swap3\n  pop\n  swap3\n  swap1\n  pop\n  jump\t// out\n    /* \"#utility.yul\":1562:1942   */\ntag_12:\n    /* \"#utility.yul\":1641:1642   */\n  0x01\n    /* \"#utility.yul\":1637:1649   */\n  dup2\n  dup2\n  shr\n  swap1\n    /* \"#utility.yul\":1684:1696   */\n  dup3\n  and\n  dup1\n    /* \"#utility.yul\":1705:1766   */\n  tag_35\n  jumpi\n    /* \"#utility.yul\":1759:1763   */\n  0x7f\n    /* \"#utility.yul\":1751:1757   */\n  dup3\n    /* \"#utility.yul\":1747:1764   */\n  and\n    /* \"#utility.yul\":1737:1764   */\n  swap2\n  pop\n    /* \"#utility.yul\":1705:1766   */\ntag_35:\n    /* \"#utility.yul\":1812:1814   */\n  0x20\n    /* \"#utility.yul\":1804:1810   */\n  dup3\n    /* \"#utility.yul\":1801:1815   */\n  lt\n    /* \"#utility.yul\":1781:1799   */\n  dup2\n    /* \"#utility.yul\":1778:1816   */\n  sub\n    /* \"#utility.yul\":1775:1936   */\n  tag_36\n  jumpi\n    /* \"#utility.yul\":1858:1868   */\n  0x4e487b71\n    /* \"#utility.yul\":1853:1856   */\n  0xe0\n    /* \"#utility.yul\":1849:1869   */\n  shl\n    /* \"#utility.yul\":1846:1847   */\n  0x00\n    /* \"#utility.yul\":1839:1870   */\n  mstore\n    /* \"#utility.yul\":1893:1897   */\n  0x22\n    /* \"#utility.yul\":1890:1891   */\n  0x04\n    /* \"#utility.yul\":1883:1898   */\n  mstore\n    /* \"#utility.yul\":1921:1925   */\n  0x24\n    /* \"#utility.yul\":1918:1919   */\n  0x00\n    /* \"#utility.yul\":1911:1926   */\n  revert\n    /* \"#utility.yul\":1775:1936   */\ntag_36:\n  pop\n    /* \"#utility.yul\":1562:1942   */\n  swap2\n  swap1\n  pop\n  jump\t// out\n    /* \"#utility.yul\":2073:2616   */\ntag_14:\n    /* \"#utility.yul\":2175:2177   */\n  0x1f\n    /* \"#utility.yul\":2170:2173   */\n  dup3\n    /* \"#utility.yul\":2167:2178   */\n  gt\n    /* \"#utility.yul\":2164:2610   */\n  iszero\n  tag_39\n  jumpi\n    /* \"#utility.yul\":2211:2212   */\n  0x00\n    /* \"#utility.yul\":2235:2240   */\n  dup2\n    /* \"#utility.yul\":2232:2233   */\n  0x00\n    /* \"#utility.yul\":2225:2241   */\n  mstore\n    /* \"#utility.yul\":2279:2283   */\n  0x20\n    /* \"#utility.yul\":2276:2277   */\n  0x00\n    /* \"#utility.yul\":2266:2284   */\n  keccak256\n    /* \"#utility.yul\":2349:2351   */\n  0x1f\n    /* \"#utility.yul\":2337:2347   */\n  dup6\n    /* \"#utility.yul\":2333:2352   */\n  add\n    /* \"#utility.yul\":2330:2331   */\n  0x05\n    /* \"#utility.yul\":2326:2353   */\n  shr\n    /* \"#utility.yul\":2320:2324   */\n  dup2\n    /* \"#utility.yul\":2316:2354   */\n  add\n    /* \"#utility.yul\":2385:2389   */\n  0x20\n    /* \"#utility.yul\":2373:2383   */\n  dup7\n    /* \"#utility.yul\":2370:2390   */\n  lt\n    /* \"#utility.yul\":2367:2414   */\n  iszero\n  tag_40\n  jumpi\n  pop\n    /* \"#utility.yul\":2408:2412   */\n  dup1\n    /* \"#utility.yul\":2367:2414   */\ntag_40:\n    /* \"#utility.yul\":2463:2465   */\n  0x1f\n    /* \"#utility.yul\":2458:2461   */\n  dup6\n    /* \"#utility.yul\":2454:2466   */\n  add\n    /* \"#utility.yul\":2451:2452   */\n  0x05\n    /* \"#utility.yul\":2447:2467   */\n  shr\n    /* \"#utility.yul\":2441:2445   */\n  dup3\n    /* \"#utility.yul\":2437:2468   */\n  add\n    /* \"#utility.yul\":2427:2468   */\n  swap2\n  pop\n    /* \"#utility.yul\":2518:2600   */\ntag_41:\n    /* \"#utility.yul\":2536:2538   */\n  dup2\n    /* \"#utility.yul\":2529:2534   */\n  dup2\n    /* \"#utility.yul\":2526:2539   */\n  lt\n    /* \"#utility.yul\":2518:2600   */\n  iszero\n  tag_43\n  jumpi\n    /* \"#utility.yul\":2581:2598   */\n  dup3\n  dup2\n  sstore\n    /* \"#utility.yul\":2562:2563   */\n  0x01\n    /* \"#utility.yul\":2551:2564   */\n  add\n    /* \"#utility.yul\":2518:2600   */\n  jump(tag_41)\ntag_43:\n    /* \"#utility.yul\":2522:2525   */\n  pop\n  pop\n  pop\n    /* \"#utility.yul\":2164:2610   */\ntag_39:\n    /* \"#utility.yul\":2073:2616   */\n  pop\n  pop\n  pop\n  jump\t// out\n    /* \"#utility.yul\":2792:4137   */\ntag_7:\n    /* \"#utility.yul\":2912:2922   */\n  dup2\n  mload\n  sub(shl(0x40, 0x01), 0x01)\n    /* \"#utility.yul\":2934:2964   */\n  dup2\n  gt\n    /* \"#utility.yul\":2931:2987   */\n  iszero\n  tag_47\n  jumpi\n    /* \"#utility.yul\":2967:2985   */\n  tag_47\n  tag_10\n  jump\t// in\ntag_47:\n    /* \"#utility.yul\":2996:3093   */\n  tag_48\n    /* \"#utility.yul\":3086:3092   */\n  dup2\n    /* \"#utility.yul\":3046:3084   */\n  tag_49\n    /* \"#utility.yul\":3078:3082   */\n  dup5\n    /* \"#utility.yul\":3072:3083   */\n  sload\n    /* \"#utility.yul\":3046:3084   */\n  tag_12\n  jump\t// in\ntag_49:\n    /* \"#utility.yul\":3040:3044   */\n  dup5\n    /* \"#utility.yul\":2996:3093   */\n  tag_14\n  jump\t// in\ntag_48:\n    /* \"#utility.yul\":3148:3152   */\n  0x20\n  dup1\n    /* \"#utility.yul\":3205:3207   */\n  0x1f\n    /* \"#utility.yul\":3194:3208   */\n  dup4\n  gt\n    /* \"#utility.yul\":3222:3223   */\n  0x01\n    /* \"#utility.yul\":3217:3880   */\n  dup2\n  eq\n  tag_51\n  jumpi\n    /* \"#utility.yul\":3924:3925   */\n  0x00\n    /* \"#utility.yul\":3941:3947   */\n  dup5\n    /* \"#utility.yul\":3938:4027   */\n  iszero\n  tag_52\n  jumpi\n  pop\n    /* \"#utility.yul\":3993:4012   */\n  dup6\n  dup4\n  add\n    /* \"#utility.yul\":3987:4013   */\n  mload\n    /* \"#utility.yul\":3938:4027   */\ntag_52:\n  not(0x00)\n    /* \"#utility.yul\":2749:2750   */\n  0x03\n    /* \"#utility.yul\":2745:2756   */\n  dup7\n  swap1\n  shl\n    /* \"#utility.yul\":2741:2765   */\n  shr\n    /* \"#utility.yul\":2737:2766   */\n  not\n    /* \"#utility.yul\":2727:2767   */\n  and\n    /* \"#utility.yul\":2773:2774   */\n  0x01\n    /* \"#utility.yul\":2769:2780   */\n  dup6\n  swap1\n  shl\n    /* \"#utility.yul\":2724:2781   */\n  or\n    /* \"#utility.yul\":4040:4121   */\n  dup6\n  sstore\n    /* \"#utility.yul\":3187:4131   */\n  jump(tag_43)\n    /* \"#utility.yul\":3217:3880   */\ntag_51:\n    /* \"#utility.yul\":2020:2021   */\n  0x00\n    /* \"#utility.yul\":2013:2027   */\n  dup6\n  dup2\n  mstore\n    /* \"#utility.yul\":2057:2061   */\n  0x20\n    /* \"#utility.yul\":2044:2062   */\n  dup2\n  keccak256\n  not(0x1f)\n    /* \"#utility.yul\":3253:3273   */\n  dup7\n  and\n  swap2\n    /* \"#utility.yul\":3371:3607   */\ntag_55:\n    /* \"#utility.yul\":3385:3392   */\n  dup3\n    /* \"#utility.yul\":3382:3383   */\n  dup2\n    /* \"#utility.yul\":3379:3393   */\n  lt\n    /* \"#utility.yul\":3371:3607   */\n  iszero\n  tag_57\n  jumpi\n    /* \"#utility.yul\":3474:3493   */\n  dup9\n  dup7\n  add\n    /* \"#utility.yul\":3468:3494   */\n  mload\n    /* \"#utility.yul\":3453:3495   */\n  dup3\n  sstore\n    /* \"#utility.yul\":3566:3593   */\n  swap5\n  dup5\n  add\n  swap5\n    /* \"#utility.yul\":3534:3535   */\n  0x01\n    /* \"#utility.yul\":3522:3536   */\n  swap1\n  swap2\n  add\n  swap1\n    /* \"#utility.yul\":3401:3420   */\n  dup5\n  add\n    /* \"#utility.yul\":3371:3607   */\n  jump(tag_55)\ntag_57:\n    /* \"#utility.yul\":3375:3378   */\n  pop\n    /* \"#utility.yul\":3635:3641   */\n  dup6\n    /* \"#utility.yul\":3626:3633   */\n  dup3\n    /* \"#utility.yul\":3623:3642   */\n  lt\n    /* \"#utility.yul\":3620:3821   */\n  iszero\n  tag_58\n  jumpi\n    /* \"#utility.yul\":3696:3715   */\n  dup8\n  dup6\n  add\n    /* \"#utility.yul\":3690:3716   */\n  mload\n  not(0x00)\n    /* \"#utility.yul\":3779:3780   */\n  0x03\n    /* \"#utility.yul\":3775:3789   */\n  dup9\n  swap1\n  shl\n    /* \"#utility.yul\":3791:3794   */\n  0xf8\n    /* \"#utility.yul\":3771:3795   */\n  and\n    /* \"#utility.yul\":3767:3804   */\n  shr\n    /* \"#utility.yul\":3763:3805   */\n  not\n    /* \"#utility.yul\":3748:3806   */\n  and\n    /* \"#utility.yul\":3733:3807   */\n  dup2\n  sstore\n    /* \"#utility.yul\":3620:3821   */\ntag_58:\n  pop\n  pop\n  pop\n  pop\n  pop\n    /* \"#utility.yul\":3867:3868   */\n  0x01\n    /* \"#utility.yul\":3851:3865   */\n  swap1\n  dup2\n  shl\n    /* \"#utility.yul\":3847:3869   */\n  add\n    /* \"#utility.yul\":3834:3870   */\n  swap1\n  sstore\n  pop\n    /* \"#utility.yul\":2792:4137   */\n  jump\t// out\ntag_16:\n    /* \"ERC20.sol\":1517:3573  contract ERC20 is IERC20 {... */\n  dataSize(sub_0)\n  dup1\n  dataOffset(sub_0)\n  0x00\n  codecopy\n  0x00\n  return\nstop\n\nsub_0: assembly {\n        /* \"ERC20.sol\":1517:3573  contract ERC20 is IERC20 {... */\n      mstore(0x40, 0x80)\n      callvalue\n      dup1\n      iszero\n      tag_1\n      jumpi\n      0x00\n      dup1\n      revert\n    tag_1:\n      pop\n      jumpi(tag_2, lt(calldatasize, 0x04))\n      shr(0xe0, calldataload(0x00))\n      dup1\n      0x42966c68\n      gt\n      tag_14\n      jumpi\n      dup1\n      0x42966c68\n      eq\n      tag_8\n      jumpi\n      dup1\n      0x70a08231\n      eq\n      tag_9\n      jumpi\n      dup1\n      0x95d89b41\n      eq\n      tag_10\n      jumpi\n      dup1\n      0xa0712d68\n      eq\n      tag_11\n      jumpi\n      dup1\n      0xa9059cbb\n      eq\n      tag_12\n      jumpi\n      dup1\n      0xdd62ed3e\n      eq\n      tag_13\n      jumpi\n      0x00\n      dup1\n      revert\n    tag_14:\n      dup1\n      0x06fdde03\n      eq\n      tag_3\n      jumpi\n      dup1\n      0x095ea7b3\n      eq\n      tag_4\n      jumpi\n      dup1\n      0x18160ddd\n      eq\n      tag_5\n      jumpi\n      dup1\n      0x23b872dd\n      eq\n      tag_6\n      jumpi\n      dup1\n      0x313ce567\n      eq\n      tag_7\n      jumpi\n    tag_2:\n      0x00\n      dup1\n      revert\n        /* \"ERC20.sol\":1752:1770  string public name */\n    tag_3:\n      tag_15\n      tag_16\n      jump\t// in\n    tag_15:\n      mload(0x40)\n      tag_17\n      swap2\n      swap1\n      tag_18\n      jump\t// in\n    tag_17:\n      mload(0x40)\n      dup1\n      swap2\n      sub\n      swap1\n      return\n        /* \"ERC20.sol\":2435:2646  function approve(address spender, uint amount) public override returns (bool) {... */\n    tag_4:\n      tag_19\n      tag_20\n      calldatasize\n      0x04\n      tag_21\n      jump\t// in\n    tag_20:\n      tag_22\n      jump\t// in\n    tag_19:\n      mload(0x40)\n        /* \"#utility.yul\":1169:1183   */\n      swap1\n      iszero\n        /* \"#utility.yul\":1162:1184   */\n      iszero\n        /* \"#utility.yul\":1144:1185   */\n      dup2\n      mstore\n        /* \"#utility.yul\":1132:1134   */\n      0x20\n        /* \"#utility.yul\":1117:1135   */\n      add\n        /* \"ERC20.sol\":2435:2646  function approve(address spender, uint amount) public override returns (bool) {... */\n      tag_17\n        /* \"#utility.yul\":1004:1191   */\n      jump\n        /* \"ERC20.sol\":1689:1724  uint256 public override totalSupply */\n    tag_5:\n      tag_25\n      sload(0x02)\n      dup2\n      jump\n    tag_25:\n      mload(0x40)\n        /* \"#utility.yul\":1342:1367   */\n      swap1\n      dup2\n      mstore\n        /* \"#utility.yul\":1330:1332   */\n      0x20\n        /* \"#utility.yul\":1315:1333   */\n      add\n        /* \"ERC20.sol\":1689:1724  uint256 public override totalSupply */\n      tag_17\n        /* \"#utility.yul\":1196:1373   */\n      jump\n        /* \"ERC20.sol\":2721:3066  function transferFrom(... */\n    tag_6:\n      tag_19\n      tag_30\n      calldatasize\n      0x04\n      tag_31\n      jump\t// in\n    tag_30:\n      tag_32\n      jump\t// in\n        /* \"ERC20.sol\":1827:1853  uint8 public decimals = 18 */\n    tag_7:\n      sload(0x05)\n      tag_34\n      swap1\n      0xff\n      and\n      dup2\n      jump\n    tag_34:\n      mload(0x40)\n        /* \"#utility.yul\":1883:1887   */\n      0xff\n        /* \"#utility.yul\":1871:1888   */\n      swap1\n      swap2\n      and\n        /* \"#utility.yul\":1853:1889   */\n      dup2\n      mstore\n        /* \"#utility.yul\":1841:1843   */\n      0x20\n        /* \"#utility.yul\":1826:1844   */\n      add\n        /* \"ERC20.sol\":1827:1853  uint8 public decimals = 18 */\n      tag_17\n        /* \"#utility.yul\":1711:1895   */\n      jump\n        /* \"ERC20.sol\":3394:3568  function burn(uint amount) external {... */\n    tag_8:\n      tag_38\n      tag_39\n      calldatasize\n      0x04\n      tag_40\n      jump\t// in\n    tag_39:\n      tag_41\n      jump\t// in\n    tag_38:\n      stop\n        /* \"ERC20.sol\":1549:1602  mapping(address => uint256) public override balanceOf */\n    tag_9:\n      tag_25\n      tag_43\n      calldatasize\n      0x04\n      tag_44\n      jump\t// in\n    tag_43:\n      0x00\n      0x20\n      dup2\n      swap1\n      mstore\n      swap1\n      dup2\n      mstore\n      0x40\n      swap1\n      keccak256\n      sload\n      dup2\n      jump\n        /* \"ERC20.sol\":1789:1809  string public symbol */\n    tag_10:\n      tag_15\n      tag_48\n      jump\t// in\n        /* \"ERC20.sol\":3142:3316  function mint(uint amount) external {... */\n    tag_11:\n      tag_38\n      tag_51\n      calldatasize\n      0x04\n      tag_40\n      jump\t// in\n    tag_51:\n      tag_52\n      jump\t// in\n        /* \"ERC20.sol\":2121:2370  function transfer(address recipient, uint amount) public override returns (bool) {... */\n    tag_12:\n      tag_19\n      tag_54\n      calldatasize\n      0x04\n      tag_21\n      jump\t// in\n    tag_54:\n      tag_55\n      jump\t// in\n        /* \"ERC20.sol\":1609:1682  mapping(address => mapping(address => uint256)) public override allowance */\n    tag_13:\n      tag_25\n      tag_58\n      calldatasize\n      0x04\n      tag_59\n      jump\t// in\n    tag_58:\n      0x01\n      0x20\n      swap1\n      dup2\n      mstore\n      0x00\n      swap3\n      dup4\n      mstore\n      0x40\n      dup1\n      dup5\n      keccak256\n      swap1\n      swap2\n      mstore\n      swap1\n      dup3\n      mstore\n      swap1\n      keccak256\n      sload\n      dup2\n      jump\n        /* \"ERC20.sol\":1752:1770  string public name */\n    tag_16:\n      0x03\n      dup1\n      sload\n      tag_62\n      swap1\n      tag_63\n      jump\t// in\n    tag_62:\n      dup1\n      0x1f\n      add\n      0x20\n      dup1\n      swap2\n      div\n      mul\n      0x20\n      add\n      mload(0x40)\n      swap1\n      dup2\n      add\n      0x40\n      mstore\n      dup1\n      swap3\n      swap2\n      swap1\n      dup2\n      dup2\n      mstore\n      0x20\n      add\n      dup3\n      dup1\n      sload\n      tag_64\n      swap1\n      tag_63\n      jump\t// in\n    tag_64:\n      dup1\n      iszero\n      tag_65\n      jumpi\n      dup1\n      0x1f\n      lt\n      tag_66\n      jumpi\n      0x0100\n      dup1\n      dup4\n      sload\n      div\n      mul\n      dup4\n      mstore\n      swap2\n      0x20\n      add\n      swap2\n      jump(tag_65)\n    tag_66:\n      dup3\n      add\n      swap2\n      swap1\n      0x00\n      mstore\n      keccak256(0x00, 0x20)\n      swap1\n    tag_67:\n      dup2\n      sload\n      dup2\n      mstore\n      swap1\n      0x01\n      add\n      swap1\n      0x20\n      add\n      dup1\n      dup4\n      gt\n      tag_67\n      jumpi\n      dup3\n      swap1\n      sub\n      0x1f\n      and\n      dup3\n      add\n      swap2\n    tag_65:\n      pop\n      pop\n      pop\n      pop\n      pop\n      dup2\n      jump\t// out\n        /* \"ERC20.sol\":2435:2646  function approve(address spender, uint amount) public override returns (bool) {... */\n    tag_22:\n        /* \"ERC20.sol\":2534:2544  msg.sender */\n      caller\n        /* \"ERC20.sol\":2507:2511  bool */\n      0x00\n        /* \"ERC20.sol\":2524:2545  allowance[msg.sender] */\n      dup2\n      dup2\n      mstore\n        /* \"ERC20.sol\":2524:2533  allowance */\n      0x01\n        /* \"ERC20.sol\":2524:2545  allowance[msg.sender] */\n      0x20\n      swap1\n      dup2\n      mstore\n      0x40\n      dup1\n      dup4\n      keccak256\n      sub(shl(0xa0, 0x01), 0x01)\n        /* \"ERC20.sol\":2524:2554  allowance[msg.sender][spender] */\n      dup8\n      and\n      dup1\n      dup6\n      mstore\n      swap3\n      mstore\n      dup1\n      dup4\n      keccak256\n        /* \"ERC20.sol\":2524:2563  allowance[msg.sender][spender] = amount */\n      dup6\n      swap1\n      sstore\n        /* \"ERC20.sol\":2579:2616  Approval(msg.sender, spender, amount) */\n      mload\n        /* \"ERC20.sol\":2507:2511  bool */\n      swap2\n      swap3\n        /* \"ERC20.sol\":2524:2554  allowance[msg.sender][spender] */\n      swap1\n      swap2\n        /* \"ERC20.sol\":2579:2616  Approval(msg.sender, spender, amount) */\n      0x8c5be1e5ebec7d5bd14f71427d1e84f3dd0314c0f7b2291e5b200ac8c7c3b925\n      swap1\n      tag_69\n      swap1\n        /* \"ERC20.sol\":2557:2563  amount */\n      dup7\n        /* \"#utility.yul\":1342:1367   */\n      dup2\n      mstore\n        /* \"#utility.yul\":1330:1332   */\n      0x20\n        /* \"#utility.yul\":1315:1333   */\n      add\n      swap1\n        /* \"#utility.yul\":1196:1373   */\n      jump\n        /* \"ERC20.sol\":2579:2616  Approval(msg.sender, spender, amount) */\n    tag_69:\n      mload(0x40)\n      dup1\n      swap2\n      sub\n      swap1\n      log3\n      pop\n        /* \"ERC20.sol\":2634:2638  true */\n      0x01\n        /* \"ERC20.sol\":2435:2646  function approve(address spender, uint amount) public override returns (bool) {... */\n    tag_68:\n      swap3\n      swap2\n      pop\n      pop\n      jump\t// out\n        /* \"ERC20.sol\":2721:3066  function transferFrom(... */\n    tag_32:\n      sub(shl(0xa0, 0x01), 0x01)\n        /* \"ERC20.sol\":2867:2884  allowance[sender] */\n      dup4\n      and\n        /* \"ERC20.sol\":2850:2854  bool */\n      0x00\n        /* \"ERC20.sol\":2867:2884  allowance[sender] */\n      swap1\n      dup2\n      mstore\n        /* \"ERC20.sol\":2867:2876  allowance */\n      0x01\n        /* \"ERC20.sol\":2867:2884  allowance[sender] */\n      0x20\n      swap1\n      dup2\n      mstore\n      0x40\n      dup1\n      dup4\n      keccak256\n        /* \"ERC20.sol\":2885:2895  msg.sender */\n      caller\n        /* \"ERC20.sol\":2867:2896  allowance[sender][msg.sender] */\n      dup5\n      mstore\n      swap1\n      swap2\n      mstore\n      dup2\n      keccak256\n        /* \"ERC20.sol\":2867:2906  allowance[sender][msg.sender] -= amount */\n      dup1\n      sload\n        /* \"ERC20.sol\":2900:2906  amount */\n      dup4\n      swap2\n        /* \"ERC20.sol\":2867:2896  allowance[sender][msg.sender] */\n      swap1\n        /* \"ERC20.sol\":2850:2854  bool */\n      dup4\n      swap1\n        /* \"ERC20.sol\":2867:2906  allowance[sender][msg.sender] -= amount */\n      tag_71\n      swap1\n        /* \"ERC20.sol\":2900:2906  amount */\n      dup5\n      swap1\n        /* \"ERC20.sol\":2867:2906  allowance[sender][msg.sender] -= amount */\n      tag_72\n      jump\t// in\n    tag_71:\n      swap1\n      swap2\n      sstore\n      pop\n      pop\n      sub(shl(0xa0, 0x01), 0x01)\n        /* \"ERC20.sol\":2917:2934  balanceOf[sender] */\n      dup5\n      and\n        /* \"ERC20.sol\":2917:2926  balanceOf */\n      0x00\n        /* \"ERC20.sol\":2917:2934  balanceOf[sender] */\n      swap1\n      dup2\n      mstore\n      0x20\n      dup2\n      swap1\n      mstore\n      0x40\n      dup2\n      keccak256\n        /* \"ERC20.sol\":2917:2944  balanceOf[sender] -= amount */\n      dup1\n      sload\n        /* \"ERC20.sol\":2938:2944  amount */\n      dup5\n      swap3\n        /* \"ERC20.sol\":2917:2926  balanceOf */\n      swap1\n        /* \"ERC20.sol\":2917:2944  balanceOf[sender] -= amount */\n      tag_73\n      swap1\n        /* \"ERC20.sol\":2938:2944  amount */\n      dup5\n      swap1\n        /* \"ERC20.sol\":2917:2944  balanceOf[sender] -= amount */\n      tag_72\n      jump\t// in\n    tag_73:\n      swap1\n      swap2\n      sstore\n      pop\n      pop\n      sub(shl(0xa0, 0x01), 0x01)\n        /* \"ERC20.sol\":2955:2975  balanceOf[recipient] */\n      dup4\n      and\n        /* \"ERC20.sol\":2955:2964  balanceOf */\n      0x00\n        /* \"ERC20.sol\":2955:2975  balanceOf[recipient] */\n      swap1\n      dup2\n      mstore\n      0x20\n      dup2\n      swap1\n      mstore\n      0x40\n      dup2\n      keccak256\n        /* \"ERC20.sol\":2955:2985  balanceOf[recipient] += amount */\n      dup1\n      sload\n        /* \"ERC20.sol\":2979:2985  amount */\n      dup5\n      swap3\n        /* \"ERC20.sol\":2955:2964  balanceOf */\n      swap1\n        /* \"ERC20.sol\":2955:2985  balanceOf[recipient] += amount */\n      tag_74\n      swap1\n        /* \"ERC20.sol\":2979:2985  amount */\n      dup5\n      swap1\n        /* \"ERC20.sol\":2955:2985  balanceOf[recipient] += amount */\n      tag_75\n      jump\t// in\n    tag_74:\n      swap3\n      pop\n      pop\n      dup2\n      swap1\n      sstore\n      pop\n        /* \"ERC20.sol\":3018:3027  recipient */\n      dup3\n      sub(shl(0xa0, 0x01), 0x01)\n        /* \"ERC20.sol\":3001:3036  Transfer(sender, recipient, amount) */\n      and\n        /* \"ERC20.sol\":3010:3016  sender */\n      dup5\n      sub(shl(0xa0, 0x01), 0x01)\n        /* \"ERC20.sol\":3001:3036  Transfer(sender, recipient, amount) */\n      and\n      0x00\n      dup1\n      mload\n      0x20\n      data_ada389e1fc24a8587c776340efb91b36e675792ab631816100d55df0b5cf3cbc\n      dup4\n      codecopy\n      dup2\n      mload\n      swap2\n      mstore\n        /* \"ERC20.sol\":3029:3035  amount */\n      dup5\n        /* \"ERC20.sol\":3001:3036  Transfer(sender, recipient, amount) */\n      mload(0x40)\n      tag_76\n      swap2\n        /* \"#utility.yul\":1342:1367   */\n      dup2\n      mstore\n        /* \"#utility.yul\":1330:1332   */\n      0x20\n        /* \"#utility.yul\":1315:1333   */\n      add\n      swap1\n        /* \"#utility.yul\":1196:1373   */\n      jump\n        /* \"ERC20.sol\":3001:3036  Transfer(sender, recipient, amount) */\n    tag_76:\n      mload(0x40)\n      dup1\n      swap2\n      sub\n      swap1\n      log3\n      pop\n        /* \"ERC20.sol\":3054:3058  true */\n      0x01\n        /* \"ERC20.sol\":2721:3066  function transferFrom(... */\n      swap4\n      swap3\n      pop\n      pop\n      pop\n      jump\t// out\n        /* \"ERC20.sol\":3394:3568  function burn(uint amount) external {... */\n    tag_41:\n        /* \"ERC20.sol\":3451:3461  msg.sender */\n      caller\n        /* \"ERC20.sol\":3441:3450  balanceOf */\n      0x00\n        /* \"ERC20.sol\":3441:3462  balanceOf[msg.sender] */\n      swap1\n      dup2\n      mstore\n      0x20\n      dup2\n      swap1\n      mstore\n      0x40\n      dup2\n      keccak256\n        /* \"ERC20.sol\":3441:3472  balanceOf[msg.sender] -= amount */\n      dup1\n      sload\n        /* \"ERC20.sol\":3466:3472  amount */\n      dup4\n      swap3\n        /* \"ERC20.sol\":3441:3450  balanceOf */\n      swap1\n        /* \"ERC20.sol\":3441:3472  balanceOf[msg.sender] -= amount */\n      tag_78\n      swap1\n        /* \"ERC20.sol\":3466:3472  amount */\n      dup5\n      swap1\n        /* \"ERC20.sol\":3441:3472  balanceOf[msg.sender] -= amount */\n      tag_72\n      jump\t// in\n    tag_78:\n      swap3\n      pop\n      pop\n      dup2\n      swap1\n      sstore\n      pop\n        /* \"ERC20.sol\":3498:3504  amount */\n      dup1\n        /* \"ERC20.sol\":3483:3494  totalSupply */\n      0x02\n      0x00\n        /* \"ERC20.sol\":3483:3504  totalSupply -= amount */\n      dup3\n      dup3\n      sload\n      tag_79\n      swap2\n      swap1\n      tag_72\n      jump\t// in\n    tag_79:\n      swap1\n      swap2\n      sstore\n      pop\n      pop\n        /* \"ERC20.sol\":3520:3560  Transfer(msg.sender, address(0), amount) */\n      mload(0x40)\n        /* \"#utility.yul\":1342:1367   */\n      dup2\n      dup2\n      mstore\n        /* \"ERC20.sol\":3549:3550  0 */\n      0x00\n      swap1\n        /* \"ERC20.sol\":3529:3539  msg.sender */\n      caller\n      swap1\n      0x00\n      dup1\n      mload\n      0x20\n      data_ada389e1fc24a8587c776340efb91b36e675792ab631816100d55df0b5cf3cbc\n      dup4\n      codecopy\n      dup2\n      mload\n      swap2\n      mstore\n        /* \"ERC20.sol\":3520:3560  Transfer(msg.sender, address(0), amount) */\n      swap1\n        /* \"#utility.yul\":1330:1332   */\n      0x20\n        /* \"#utility.yul\":1315:1333   */\n      add\n        /* \"ERC20.sol\":3520:3560  Transfer(msg.sender, address(0), amount) */\n    tag_80:\n      mload(0x40)\n      dup1\n      swap2\n      sub\n      swap1\n      log3\n        /* \"ERC20.sol\":3394:3568  function burn(uint amount) external {... */\n      pop\n      jump\t// out\n        /* \"ERC20.sol\":1789:1809  string public symbol */\n    tag_48:\n      0x04\n      dup1\n      sload\n      tag_62\n      swap1\n      tag_63\n      jump\t// in\n        /* \"ERC20.sol\":3142:3316  function mint(uint amount) external {... */\n    tag_52:\n        /* \"ERC20.sol\":3199:3209  msg.sender */\n      caller\n        /* \"ERC20.sol\":3189:3198  balanceOf */\n      0x00\n        /* \"ERC20.sol\":3189:3210  balanceOf[msg.sender] */\n      swap1\n      dup2\n      mstore\n      0x20\n      dup2\n      swap1\n      mstore\n      0x40\n      dup2\n      keccak256\n        /* \"ERC20.sol\":3189:3220  balanceOf[msg.sender] += amount */\n      dup1\n      sload\n        /* \"ERC20.sol\":3214:3220  amount */\n      dup4\n      swap3\n        /* \"ERC20.sol\":3189:3198  balanceOf */\n      swap1\n        /* \"ERC20.sol\":3189:3220  balanceOf[msg.sender] += amount */\n      tag_87\n      swap1\n        /* \"ERC20.sol\":3214:3220  amount */\n      dup5\n      swap1\n        /* \"ERC20.sol\":3189:3220  balanceOf[msg.sender] += amount */\n      tag_75\n      jump\t// in\n    tag_87:\n      swap3\n      pop\n      pop\n      dup2\n      swap1\n      sstore\n      pop\n        /* \"ERC20.sol\":3246:3252  amount */\n      dup1\n        /* \"ERC20.sol\":3231:3242  totalSupply */\n      0x02\n      0x00\n        /* \"ERC20.sol\":3231:3252  totalSupply += amount */\n      dup3\n      dup3\n      sload\n      tag_88\n      swap2\n      swap1\n      tag_75\n      jump\t// in\n    tag_88:\n      swap1\n      swap2\n      sstore\n      pop\n      pop\n        /* \"ERC20.sol\":3268:3308  Transfer(address(0), msg.sender, amount) */\n      mload(0x40)\n        /* \"#utility.yul\":1342:1367   */\n      dup2\n      dup2\n      mstore\n        /* \"ERC20.sol\":3289:3299  msg.sender */\n      caller\n      swap1\n        /* \"ERC20.sol\":3285:3286  0 */\n      0x00\n      swap1\n      0x00\n      dup1\n      mload\n      0x20\n      data_ada389e1fc24a8587c776340efb91b36e675792ab631816100d55df0b5cf3cbc\n      dup4\n      codecopy\n      dup2\n      mload\n      swap2\n      mstore\n        /* \"ERC20.sol\":3268:3308  Transfer(address(0), msg.sender, amount) */\n      swap1\n        /* \"#utility.yul\":1330:1332   */\n      0x20\n        /* \"#utility.yul\":1315:1333   */\n      add\n        /* \"ERC20.sol\":3268:3308  Transfer(address(0), msg.sender, amount) */\n      tag_80\n        /* \"#utility.yul\":1196:1373   */\n      jump\n        /* \"ERC20.sol\":2121:2370  function transfer(address recipient, uint amount) public override returns (bool) {... */\n    tag_55:\n        /* \"ERC20.sol\":2223:2233  msg.sender */\n      caller\n        /* \"ERC20.sol\":2196:2200  bool */\n      0x00\n        /* \"ERC20.sol\":2213:2234  balanceOf[msg.sender] */\n      swap1\n      dup2\n      mstore\n      0x20\n      dup2\n      swap1\n      mstore\n      0x40\n      dup2\n      keccak256\n        /* \"ERC20.sol\":2213:2244  balanceOf[msg.sender] -= amount */\n      dup1\n      sload\n        /* \"ERC20.sol\":2238:2244  amount */\n      dup4\n      swap2\n        /* \"ERC20.sol\":2213:2234  balanceOf[msg.sender] */\n      swap1\n        /* \"ERC20.sol\":2196:2200  bool */\n      dup4\n      swap1\n        /* \"ERC20.sol\":2213:2244  balanceOf[msg.sender] -= amount */\n      tag_91\n      swap1\n        /* \"ERC20.sol\":2238:2244  amount */\n      dup5\n      swap1\n        /* \"ERC20.sol\":2213:2244  balanceOf[msg.sender] -= amount */\n      tag_72\n      jump\t// in\n    tag_91:\n      swap1\n      swap2\n      sstore\n      pop\n      pop\n      sub(shl(0xa0, 0x01), 0x01)\n        /* \"ERC20.sol\":2255:2275  balanceOf[recipient] */\n      dup4\n      and\n        /* \"ERC20.sol\":2255:2264  balanceOf */\n      0x00\n        /* \"ERC20.sol\":2255:2275  balanceOf[recipient] */\n      swap1\n      dup2\n      mstore\n      0x20\n      dup2\n      swap1\n      mstore\n      0x40\n      dup2\n      keccak256\n        /* \"ERC20.sol\":2255:2285  balanceOf[recipient] += amount */\n      dup1\n      sload\n        /* \"ERC20.sol\":2279:2285  amount */\n      dup5\n      swap3\n        /* \"ERC20.sol\":2255:2264  balanceOf */\n      swap1\n        /* \"ERC20.sol\":2255:2285  balanceOf[recipient] += amount */\n      tag_92\n      swap1\n        /* \"ERC20.sol\":2279:2285  amount */\n      dup5\n      swap1\n        /* \"ERC20.sol\":2255:2285  balanceOf[recipient] += amount */\n      tag_75\n      jump\t// in\n    tag_92:\n      swap1\n      swap2\n      sstore\n      pop\n      pop\n        /* \"ERC20.sol\":2301:2340  Transfer(msg.sender, recipient, amount) */\n      mload(0x40)\n        /* \"#utility.yul\":1342:1367   */\n      dup3\n      dup2\n      mstore\n      sub(shl(0xa0, 0x01), 0x01)\n        /* \"ERC20.sol\":2301:2340  Transfer(msg.sender, recipient, amount) */\n      dup5\n      and\n      swap1\n        /* \"ERC20.sol\":2310:2320  msg.sender */\n      caller\n      swap1\n      0x00\n      dup1\n      mload\n      0x20\n      data_ada389e1fc24a8587c776340efb91b36e675792ab631816100d55df0b5cf3cbc\n      dup4\n      codecopy\n      dup2\n      mload\n      swap2\n      mstore\n        /* \"ERC20.sol\":2301:2340  Transfer(msg.sender, recipient, amount) */\n      swap1\n        /* \"#utility.yul\":1330:1332   */\n      0x20\n        /* \"#utility.yul\":1315:1333   */\n      add\n        /* \"ERC20.sol\":2301:2340  Transfer(msg.sender, recipient, amount) */\n      tag_69\n        /* \"#utility.yul\":1196:1373   */\n      jump\n        /* \"#utility.yul\":14:562   */\n    tag_18:\n        /* \"#utility.yul\":126:130   */\n      0x00\n        /* \"#utility.yul\":155:157   */\n      0x20\n        /* \"#utility.yul\":184:186   */\n      dup1\n        /* \"#utility.yul\":173:182   */\n      dup4\n        /* \"#utility.yul\":166:187   */\n      mstore\n        /* \"#utility.yul\":216:222   */\n      dup4\n        /* \"#utility.yul\":210:223   */\n      mload\n        /* \"#utility.yul\":259:265   */\n      dup1\n        /* \"#utility.yul\":254:256   */\n      0x20\n        /* \"#utility.yul\":243:252   */\n      dup6\n        /* \"#utility.yul\":239:257   */\n      add\n        /* \"#utility.yul\":232:266   */\n      mstore\n        /* \"#utility.yul\":284:285   */\n      0x00\n        /* \"#utility.yul\":294:434   */\n    tag_98:\n        /* \"#utility.yul\":308:314   */\n      dup2\n        /* \"#utility.yul\":305:306   */\n      dup2\n        /* \"#utility.yul\":302:315   */\n      lt\n        /* \"#utility.yul\":294:434   */\n      iszero\n      tag_100\n      jumpi\n        /* \"#utility.yul\":403:417   */\n      dup6\n      dup2\n      add\n        /* \"#utility.yul\":399:422   */\n      dup4\n      add\n        /* \"#utility.yul\":393:423   */\n      mload\n        /* \"#utility.yul\":369:386   */\n      dup6\n      dup3\n      add\n        /* \"#utility.yul\":388:390   */\n      0x40\n        /* \"#utility.yul\":365:391   */\n      add\n        /* \"#utility.yul\":358:424   */\n      mstore\n        /* \"#utility.yul\":323:333   */\n      dup3\n      add\n        /* \"#utility.yul\":294:434   */\n      jump(tag_98)\n    tag_100:\n        /* \"#utility.yul\":298:301   */\n      pop\n        /* \"#utility.yul\":483:484   */\n      0x00\n        /* \"#utility.yul\":478:480   */\n      0x40\n        /* \"#utility.yul\":469:475   */\n      dup3\n        /* \"#utility.yul\":458:467   */\n      dup7\n        /* \"#utility.yul\":454:476   */\n      add\n        /* \"#utility.yul\":450:481   */\n      add\n        /* \"#utility.yul\":443:485   */\n      mstore\n        /* \"#utility.yul\":553:555   */\n      0x40\n        /* \"#utility.yul\":546:548   */\n      0x1f\n        /* \"#utility.yul\":542:549   */\n      not\n        /* \"#utility.yul\":537:539   */\n      0x1f\n        /* \"#utility.yul\":529:535   */\n      dup4\n        /* \"#utility.yul\":525:540   */\n      add\n        /* \"#utility.yul\":521:550   */\n      and\n        /* \"#utility.yul\":510:519   */\n      dup6\n        /* \"#utility.yul\":506:551   */\n      add\n        /* \"#utility.yul\":502:556   */\n      add\n        /* \"#utility.yul\":494:556   */\n      swap3\n      pop\n      pop\n      pop\n        /* \"#utility.yul\":14:562   */\n      swap3\n      swap2\n      pop\n      pop\n      jump\t// out\n        /* \"#utility.yul\":567:740   */\n    tag_94:\n        /* \"#utility.yul\":635:655   */\n      dup1\n      calldataload\n      sub(shl(0xa0, 0x01), 0x01)\n        /* \"#utility.yul\":684:715   */\n      dup2\n      and\n        /* \"#utility.yul\":674:716   */\n      dup2\n      eq\n        /* \"#utility.yul\":664:734   */\n      tag_102\n      jumpi\n        /* \"#utility.yul\":730:731   */\n      0x00\n        /* \"#utility.yul\":727:728   */\n      dup1\n        /* \"#utility.yul\":720:732   */\n      revert\n        /* \"#utility.yul\":664:734   */\n    tag_102:\n        /* \"#utility.yul\":567:740   */\n      swap2\n      swap1\n      pop\n      jump\t// out\n        /* \"#utility.yul\":745:999   */\n    tag_21:\n        /* \"#utility.yul\":813:819   */\n      0x00\n        /* \"#utility.yul\":821:827   */\n      dup1\n        /* \"#utility.yul\":874:876   */\n      0x40\n        /* \"#utility.yul\":862:871   */\n      dup4\n        /* \"#utility.yul\":853:860   */\n      dup6\n        /* \"#utility.yul\":849:872   */\n      sub\n        /* \"#utility.yul\":845:877   */\n      slt\n        /* \"#utility.yul\":842:894   */\n      iszero\n      tag_104\n      jumpi\n        /* \"#utility.yul\":890:891   */\n      0x00\n        /* \"#utility.yul\":887:888   */\n      dup1\n        /* \"#utility.yul\":880:892   */\n      revert\n        /* \"#utility.yul\":842:894   */\n    tag_104:\n        /* \"#utility.yul\":913:942   */\n      tag_105\n        /* \"#utility.yul\":932:941   */\n      dup4\n        /* \"#utility.yul\":913:942   */\n      tag_94\n      jump\t// in\n    tag_105:\n        /* \"#utility.yul\":903:942   */\n      swap5\n        /* \"#utility.yul\":989:991   */\n      0x20\n        /* \"#utility.yul\":974:992   */\n      swap4\n      swap1\n      swap4\n      add\n        /* \"#utility.yul\":961:993   */\n      calldataload\n      swap4\n      pop\n      pop\n      pop\n        /* \"#utility.yul\":745:999   */\n      jump\t// out\n        /* \"#utility.yul\":1378:1706   */\n    tag_31:\n        /* \"#utility.yul\":1455:1461   */\n      0x00\n        /* \"#utility.yul\":1463:1469   */\n      dup1\n        /* \"#utility.yul\":1471:1477   */\n      0x00\n        /* \"#utility.yul\":1524:1526   */\n      0x60\n        /* \"#utility.yul\":1512:1521   */\n      dup5\n        /* \"#utility.yul\":1503:1510   */\n      dup7\n        /* \"#utility.yul\":1499:1522   */\n      sub\n        /* \"#utility.yul\":1495:1527   */\n      slt\n        /* \"#utility.yul\":1492:1544   */\n      iszero\n      tag_109\n      jumpi\n        /* \"#utility.yul\":1540:1541   */\n      0x00\n        /* \"#utility.yul\":1537:1538   */\n      dup1\n        /* \"#utility.yul\":1530:1542   */\n      revert\n        /* \"#utility.yul\":1492:1544   */\n    tag_109:\n        /* \"#utility.yul\":1563:1592   */\n      tag_110\n        /* \"#utility.yul\":1582:1591   */\n      dup5\n        /* \"#utility.yul\":1563:1592   */\n      tag_94\n      jump\t// in\n    tag_110:\n        /* \"#utility.yul\":1553:1592   */\n      swap3\n      pop\n        /* \"#utility.yul\":1611:1649   */\n      tag_111\n        /* \"#utility.yul\":1645:1647   */\n      0x20\n        /* \"#utility.yul\":1634:1643   */\n      dup6\n        /* \"#utility.yul\":1630:1648   */\n      add\n        /* \"#utility.yul\":1611:1649   */\n      tag_94\n      jump\t// in\n    tag_111:\n        /* \"#utility.yul\":1601:1649   */\n      swap2\n      pop\n        /* \"#utility.yul\":1696:1698   */\n      0x40\n        /* \"#utility.yul\":1685:1694   */\n      dup5\n        /* \"#utility.yul\":1681:1699   */\n      add\n        /* \"#utility.yul\":1668:1700   */\n      calldataload\n        /* \"#utility.yul\":1658:1700   */\n      swap1\n      pop\n        /* \"#utility.yul\":1378:1706   */\n      swap3\n      pop\n      swap3\n      pop\n      swap3\n      jump\t// out\n        /* \"#utility.yul\":1900:2080   */\n    tag_40:\n        /* \"#utility.yul\":1959:1965   */\n      0x00\n        /* \"#utility.yul\":2012:2014   */\n      0x20\n        /* \"#utility.yul\":2000:2009   */\n      dup3\n        /* \"#utility.yul\":1991:1998   */\n      dup5\n        /* \"#utility.yul\":1987:2010   */\n      sub\n        /* \"#utility.yul\":1983:2015   */\n      slt\n        /* \"#utility.yul\":1980:2032   */\n      iszero\n      tag_114\n      jumpi\n        /* \"#utility.yul\":2028:2029   */\n      0x00\n        /* \"#utility.yul\":2025:2026   */\n      dup1\n        /* \"#utility.yul\":2018:2030   */\n      revert\n        /* \"#utility.yul\":1980:2032   */\n    tag_114:\n      pop\n        /* \"#utility.yul\":2051:2074   */\n      calldataload\n      swap2\n        /* \"#utility.yul\":1900:2080   */\n      swap1\n      pop\n      jump\t// out\n        /* \"#utility.yul\":2085:2271   */\n    tag_44:\n        /* \"#utility.yul\":2144:2150   */\n      0x00\n        /* \"#utility.yul\":2197:2199   */\n      0x20\n        /* \"#utility.yul\":2185:2194   */\n      dup3\n        /* \"#utility.yul\":2176:2183   */\n      dup5\n        /* \"#utility.yul\":2172:2195   */\n      sub\n        /* \"#utility.yul\":2168:2200   */\n      slt\n        /* \"#utility.yul\":2165:2217   */\n      iszero\n      tag_116\n      jumpi\n        /* \"#utility.yul\":2213:2214   */\n      0x00\n        /* \"#utility.yul\":2210:2211   */\n      dup1\n        /* \"#utility.yul\":2203:2215   */\n      revert\n        /* \"#utility.yul\":2165:2217   */\n    tag_116:\n        /* \"#utility.yul\":2236:2265   */\n      tag_117\n        /* \"#utility.yul\":2255:2264   */\n      dup3\n        /* \"#utility.yul\":2236:2265   */\n      tag_94\n      jump\t// in\n    tag_117:\n        /* \"#utility.yul\":2226:2265   */\n      swap4\n        /* \"#utility.yul\":2085:2271   */\n      swap3\n      pop\n      pop\n      pop\n      jump\t// out\n        /* \"#utility.yul\":2276:2536   */\n    tag_59:\n        /* \"#utility.yul\":2344:2350   */\n      0x00\n        /* \"#utility.yul\":2352:2358   */\n      dup1\n        /* \"#utility.yul\":2405:2407   */\n      0x40\n        /* \"#utility.yul\":2393:2402   */\n      dup4\n        /* \"#utility.yul\":2384:2391   */\n      dup6\n        /* \"#utility.yul\":2380:2403   */\n      sub\n        /* \"#utility.yul\":2376:2408   */\n      slt\n        /* \"#utility.yul\":2373:2425   */\n      iszero\n      tag_119\n      jumpi\n        /* \"#utility.yul\":2421:2422   */\n      0x00\n        /* \"#utility.yul\":2418:2419   */\n      dup1\n        /* \"#utility.yul\":2411:2423   */\n      revert\n        /* \"#utility.yul\":2373:2425   */\n    tag_119:\n        /* \"#utility.yul\":2444:2473   */\n      tag_120\n        /* \"#utility.yul\":2463:2472   */\n      dup4\n        /* \"#utility.yul\":2444:2473   */\n      tag_94\n      jump\t// in\n    tag_120:\n        /* \"#utility.yul\":2434:2473   */\n      swap2\n      pop\n        /* \"#utility.yul\":2492:2530   */\n      tag_121\n        /* \"#utility.yul\":2526:2528   */\n      0x20\n        /* \"#utility.yul\":2515:2524   */\n      dup5\n        /* \"#utility.yul\":2511:2529   */\n      add\n        /* \"#utility.yul\":2492:2530   */\n      tag_94\n      jump\t// in\n    tag_121:\n        /* \"#utility.yul\":2482:2530   */\n      swap1\n      pop\n        /* \"#utility.yul\":2276:2536   */\n      swap3\n      pop\n      swap3\n      swap1\n      pop\n      jump\t// out\n        /* \"#utility.yul\":2541:2921   */\n    tag_63:\n        /* \"#utility.yul\":2620:2621   */\n      0x01\n        /* \"#utility.yul\":2616:2628   */\n      dup2\n      dup2\n      shr\n      swap1\n        /* \"#utility.yul\":2663:2675   */\n      dup3\n      and\n      dup1\n        /* \"#utility.yul\":2684:2745   */\n      tag_123\n      jumpi\n        /* \"#utility.yul\":2738:2742   */\n      0x7f\n        /* \"#utility.yul\":2730:2736   */\n      dup3\n        /* \"#utility.yul\":2726:2743   */\n      and\n        /* \"#utility.yul\":2716:2743   */\n      swap2\n      pop\n        /* \"#utility.yul\":2684:2745   */\n    tag_123:\n        /* \"#utility.yul\":2791:2793   */\n      0x20\n        /* \"#utility.yul\":2783:2789   */\n      dup3\n        /* \"#utility.yul\":2780:2794   */\n      lt\n        /* \"#utility.yul\":2760:2778   */\n      dup2\n        /* \"#utility.yul\":2757:2795   */\n      sub\n        /* \"#utility.yul\":2754:2915   */\n      tag_124\n      jumpi\n        /* \"#utility.yul\":2837:2847   */\n      0x4e487b71\n        /* \"#utility.yul\":2832:2835   */\n      0xe0\n        /* \"#utility.yul\":2828:2848   */\n      shl\n        /* \"#utility.yul\":2825:2826   */\n      0x00\n        /* \"#utility.yul\":2818:2849   */\n      mstore\n        /* \"#utility.yul\":2872:2876   */\n      0x22\n        /* \"#utility.yul\":2869:2870   */\n      0x04\n        /* \"#utility.yul\":2862:2877   */\n      mstore\n        /* \"#utility.yul\":2900:2904   */\n      0x24\n        /* \"#utility.yul\":2897:2898   */\n      0x00\n        /* \"#utility.yul\":2890:2905   */\n      revert\n        /* \"#utility.yul\":2754:2915   */\n    tag_124:\n      pop\n        /* \"#utility.yul\":2541:2921   */\n      swap2\n      swap1\n      pop\n      jump\t// out\n        /* \"#utility.yul\":2926:3053   */\n    tag_95:\n        /* \"#utility.yul\":2987:2997   */\n      0x4e487b71\n        /* \"#utility.yul\":2982:2985   */\n      0xe0\n        /* \"#utility.yul\":2978:2998   */\n      shl\n        /* \"#utility.yul\":2975:2976   */\n      0x00\n        /* \"#utility.yul\":2968:2999   */\n      mstore\n        /* \"#utility.yul\":3018:3022   */\n      0x11\n        /* \"#utility.yul\":3015:3016   */\n      0x04\n        /* \"#utility.yul\":3008:3023   */\n      mstore\n        /* \"#utility.yul\":3042:3046   */\n      0x24\n        /* \"#utility.yul\":3039:3040   */\n      0x00\n        /* \"#utility.yul\":3032:3047   */\n      revert\n        /* \"#utility.yul\":3058:3186   */\n    tag_72:\n        /* \"#utility.yul\":3125:3134   */\n      dup2\n      dup2\n      sub\n        /* \"#utility.yul\":3146:3157   */\n      dup2\n      dup2\n      gt\n        /* \"#utility.yul\":3143:3180   */\n      iszero\n      tag_68\n      jumpi\n        /* \"#utility.yul\":3160:3178   */\n      tag_68\n      tag_95\n      jump\t// in\n        /* \"#utility.yul\":3191:3316   */\n    tag_75:\n        /* \"#utility.yul\":3256:3265   */\n      dup1\n      dup3\n      add\n        /* \"#utility.yul\":3277:3287   */\n      dup1\n      dup3\n      gt\n        /* \"#utility.yul\":3274:3310   */\n      iszero\n      tag_68\n      jumpi\n        /* \"#utility.yul\":3290:3308   */\n      tag_68\n      tag_95\n      jump\t// in\n    stop\n    data_ada389e1fc24a8587c776340efb91b36e675792ab631816100d55df0b5cf3cbc ddf252ad1be2c89b69c2b068fc378daa952ba7f163c4a11628f55a4df523b3ef\n\n    auxdata: 0xa264697066735822122080ab5ed4ebfc57b5eb149d0e0dd53840a862e0b33446836d8c731669406ca66264736f6c63430008180033\n}\n",
				"bytecode": {
					"linkReferences": {},
					"object": "60806040526005805460ff191660121790553480156200001e57600080fd5b50604051620009ff380380620009ff83398101604081905262000041916200012f565b60036200004f83826200022a565b5060046200005e82826200022a565b505050620002f6565b634e487b7160e01b600052604160045260246000fd5b600082601f8301126200008f57600080fd5b81516001600160401b0380821115620000ac57620000ac62000067565b604051601f8301601f19908116603f01168101908282118183101715620000d757620000d762000067565b8160405283815260209250866020858801011115620000f557600080fd5b600091505b83821015620001195785820183015181830184015290820190620000fa565b6000602085830101528094505050505092915050565b600080604083850312156200014357600080fd5b82516001600160401b03808211156200015b57600080fd5b62000169868387016200007d565b935060208501519150808211156200018057600080fd5b506200018f858286016200007d565b9150509250929050565b600181811c90821680620001ae57607f821691505b602082108103620001cf57634e487b7160e01b600052602260045260246000fd5b50919050565b601f82111562000225576000816000526020600020601f850160051c81016020861015620002005750805b601f850160051c820191505b8181101562000221578281556001016200020c565b5050505b505050565b81516001600160401b0381111562000246576200024662000067565b6200025e8162000257845462000199565b84620001d5565b602080601f8311600181146200029657600084156200027d5750858301515b600019600386901b1c1916600185901b17855562000221565b600085815260208120601f198616915b82811015620002c757888601518255948401946001909101908401620002a6565b5085821015620002e65787850151600019600388901b60f8161c191681555b5050505050600190811b01905550565b6106f980620003066000396000f3fe608060405234801561001057600080fd5b50600436106100a95760003560e01c806342966c681161007157806342966c681461013857806370a082311461014d57806395d89b411461016d578063a0712d6814610175578063a9059cbb14610188578063dd62ed3e1461019b57600080fd5b806306fdde03146100ae578063095ea7b3146100cc57806318160ddd146100ef57806323b872dd14610106578063313ce56714610119575b600080fd5b6100b66101c6565b6040516100c391906104ee565b60405180910390f35b6100df6100da366004610559565b610254565b60405190151581526020016100c3565b6100f860025481565b6040519081526020016100c3565b6100df610114366004610583565b6102c1565b6005546101269060ff1681565b60405160ff90911681526020016100c3565b61014b6101463660046105bf565b61039c565b005b6100f861015b3660046105d8565b60006020819052908152604090205481565b6100b6610403565b61014b6101833660046105bf565b610410565b6100df610196366004610559565b610470565b6100f86101a93660046105fa565b600160209081526000928352604080842090915290825290205481565b600380546101d39061062d565b80601f01602080910402602001604051908101604052809291908181526020018280546101ff9061062d565b801561024c5780601f106102215761010080835404028352916020019161024c565b820191906000526020600020905b81548152906001019060200180831161022f57829003601f168201915b505050505081565b3360008181526001602090815260408083206001600160a01b038716808552925280832085905551919290917f8c5be1e5ebec7d5bd14f71427d1e84f3dd0314c0f7b2291e5b200ac8c7c3b925906102af9086815260200190565b60405180910390a35060015b92915050565b6001600160a01b03831660009081526001602090815260408083203384529091528120805483919083906102f690849061067d565b90915550506001600160a01b0384166000908152602081905260408120805484929061032390849061067d565b90915550506001600160a01b03831660009081526020819052604081208054849290610350908490610690565b92505081905550826001600160a01b0316846001600160a01b03166000805160206106a48339815191528460405161038a91815260200190565b60405180910390a35060019392505050565b33600090815260208190526040812080548392906103bb90849061067d565b9250508190555080600260008282546103d4919061067d565b909155505060405181815260009033906000805160206106a4833981519152906020015b60405180910390a350565b600480546101d39061062d565b336000908152602081905260408120805483929061042f908490610690565b9250508190555080600260008282546104489190610690565b909155505060405181815233906000906000805160206106a4833981519152906020016103f8565b3360009081526020819052604081208054839190839061049190849061067d565b90915550506001600160a01b038316600090815260208190526040812080548492906104be908490610690565b90915550506040518281526001600160a01b0384169033906000805160206106a4833981519152906020016102af565b60006020808352835180602085015260005b8181101561051c57858101830151858201604001528201610500565b506000604082860101526040601f19601f8301168501019250505092915050565b80356001600160a01b038116811461055457600080fd5b919050565b6000806040838503121561056c57600080fd5b6105758361053d565b946020939093013593505050565b60008060006060848603121561059857600080fd5b6105a18461053d565b92506105af6020850161053d565b9150604084013590509250925092565b6000602082840312156105d157600080fd5b5035919050565b6000602082840312156105ea57600080fd5b6105f38261053d565b9392505050565b6000806040838503121561060d57600080fd5b6106168361053d565b91506106246020840161053d565b90509250929050565b600181811c9082168061064157607f821691505b60208210810361066157634e487b7160e01b600052602260045260246000fd5b50919050565b634e487b7160e01b600052601160045260246000fd5b818103818111156102bb576102bb610667565b808201808211156102bb576102bb61066756feddf252ad1be2c89b69c2b068fc378daa952ba7f163c4a11628f55a4df523b3efa264697066735822122080ab5ed4ebfc57b5eb149d0e0dd53840a862e0b33446836d8c731669406ca66264736f6c63430008180033",
					"opcodes": "PUSH1 0x80 PUSH1 0x40 MSTORE PUSH1 0x5 DUP1 SLOAD PUSH1 0xFF NOT AND PUSH1 0x12 OR SWAP1 SSTORE CALLVALUE DUP1 ISZERO PUSH3 0x1E JUMPI PUSH1 0x0 DUP1 REVERT JUMPDEST POP PUSH1 0x40 MLOAD PUSH3 0x9FF CODESIZE SUB DUP1 PUSH3 0x9FF DUP4 CODECOPY DUP2 ADD PUSH1 0x40 DUP2 SWAP1 MSTORE PUSH3 0x41 SWAP2 PUSH3 0x12F JUMP JUMPDEST PUSH1 0x3 PUSH3 0x4F DUP4 DUP3 PUSH3 0x22A JUMP JUMPDEST POP PUSH1 0x4 PUSH3 0x5E DUP3 DUP3 PUSH3 0x22A JUMP JUMPDEST POP POP POP PUSH3 0x2F6 JUMP JUMPDEST PUSH4 0x4E487B71 PUSH1 0xE0 SHL PUSH1 0x0 MSTORE PUSH1 0x41 PUSH1 0x4 MSTORE PUSH1 0x24 PUSH1 0x0 REVERT JUMPDEST PUSH1 0x0 DUP3 PUSH1 0x1F DUP4 ADD SLT PUSH3 0x8F JUMPI PUSH1 0x0 DUP1 REVERT JUMPDEST DUP2 MLOAD PUSH1 0x1 PUSH1 0x1 PUSH1 0x40 SHL SUB DUP1 DUP3 GT ISZERO PUSH3 0xAC JUMPI PUSH3 0xAC PUSH3 0x67 JUMP JUMPDEST PUSH1 0x40 MLOAD PUSH1 0x1F DUP4 ADD PUSH1 0x1F NOT SWAP1 DUP2 AND PUSH1 0x3F ADD AND DUP2 ADD SWAP1 DUP3 DUP3 GT DUP2 DUP4 LT OR ISZERO PUSH3 0xD7 JUMPI PUSH3 0xD7 PUSH3 0x67 JUMP JUMPDEST DUP2 PUSH1 0x40 MSTORE DUP4 DUP2 MSTORE PUSH1 0x20 SWAP3 POP DUP7 PUSH1 0x20 DUP6 DUP9 ADD ADD GT ISZERO PUSH3 0xF5 JUMPI PUSH1 0x0 DUP1 REVERT JUMPDEST PUSH1 0x0 SWAP2 POP JUMPDEST DUP4 DUP3 LT ISZERO PUSH3 0x119 JUMPI DUP6 DUP3 ADD DUP4 ADD MLOAD DUP2 DUP4 ADD DUP5 ADD MSTORE SWAP1 DUP3 ADD SWAP1 PUSH3 0xFA JUMP JUMPDEST PUSH1 0x0 PUSH1 0x20 DUP6 DUP4 ADD ADD MSTORE DUP1 SWAP5 POP POP POP POP POP SWAP3 SWAP2 POP POP JUMP JUMPDEST PUSH1 0x0 DUP1 PUSH1 0x40 DUP4 DUP6 SUB SLT ISZERO PUSH3 0x143 JUMPI PUSH1 0x0 DUP1 REVERT JUMPDEST DUP3 MLOAD PUSH1 0x1 PUSH1 0x1 PUSH1 0x40 SHL SUB DUP1 DUP3 GT ISZERO PUSH3 0x15B JUMPI PUSH1 0x0 DUP1 REVERT JUMPDEST PUSH3 0x169 DUP7 DUP4 DUP8 ADD PUSH3 0x7D JUMP JUMPDEST SWAP4 POP PUSH1 0x20 DUP6 ADD MLOAD SWAP2 POP DUP1 DUP3 GT ISZERO PUSH3 0x180 JUMPI PUSH1 0x0 DUP1 REVERT JUMPDEST POP PUSH3 0x18F DUP6 DUP3 DUP7 ADD PUSH3 0x7D JUMP JUMPDEST SWAP2 POP POP SWAP3 POP SWAP3 SWAP1 POP JUMP JUMPDEST PUSH1 0x1 DUP2 DUP2 SHR SWAP1 DUP3 AND DUP1 PUSH3 0x1AE JUMPI PUSH1 0x7F DUP3 AND SWAP2 POP JUMPDEST PUSH1 0x20 DUP3 LT DUP2 SUB PUSH3 0x1CF JUMPI PUSH4 0x4E487B71 PUSH1 0xE0 SHL PUSH1 0x0 MSTORE PUSH1 0x22 PUSH1 0x4 MSTORE PUSH1 0x24 PUSH1 0x0 REVERT JUMPDEST POP SWAP2 SWAP1 POP JUMP JUMPDEST PUSH1 0x1F DUP3 GT ISZERO PUSH3 0x225 JUMPI PUSH1 0x0 DUP2 PUSH1 0x0 MSTORE PUSH1 0x20 PUSH1 0x0 KECCAK256 PUSH1 0x1F DUP6 ADD PUSH1 0x5 SHR DUP2 ADD PUSH1 0x20 DUP7 LT ISZERO PUSH3 0x200 JUMPI POP DUP1 JUMPDEST PUSH1 0x1F DUP6 ADD PUSH1 0x5 SHR DUP3 ADD SWAP2 POP JUMPDEST DUP2 DUP2 LT ISZERO PUSH3 0x221 JUMPI DUP3 DUP2 SSTORE PUSH1 0x1 ADD PUSH3 0x20C JUMP JUMPDEST POP POP POP JUMPDEST POP POP POP JUMP JUMPDEST DUP2 MLOAD PUSH1 0x1 PUSH1 0x1 PUSH1 0x40 SHL SUB DUP2 GT ISZERO PUSH3 0x246 JUMPI PUSH3 0x246 PUSH3 0x67 JUMP JUMPDEST PUSH3 0x25E DUP2 PUSH3 0x257 DUP5 SLOAD PUSH3 0x199 JUMP JUMPDEST DUP5 PUSH3 0x1D5 JUMP JUMPDEST PUSH1 0x20 DUP1 PUSH1 0x1F DUP4 GT PUSH1 0x1 DUP2 EQ PUSH3 0x296 JUMPI PUSH1 0x0 DUP5 ISZERO PUSH3 0x27D JUMPI POP DUP6 DUP4 ADD MLOAD JUMPDEST PUSH1 0x0 NOT PUSH1 0x3 DUP7 SWAP1 SHL SHR NOT AND PUSH1 0x1 DUP6 SWAP1 SHL OR DUP6 SSTORE PUSH3 0x221 JUMP JUMPDEST PUSH1 0x0 DUP6 DUP2 MSTORE PUSH1 0x20 DUP2 KECCAK256 PUSH1 0x1F NOT DUP7 AND SWAP2 JUMPDEST DUP3 DUP2 LT ISZERO PUSH3 0x2C7 JUMPI DUP9 DUP7 ADD MLOAD DUP3 SSTORE SWAP5 DUP5 ADD SWAP5 PUSH1 0x1 SWAP1 SWAP2 ADD SWAP1 DUP5 ADD PUSH3 0x2A6 JUMP JUMPDEST POP DUP6 DUP3 LT ISZERO PUSH3 0x2E6 JUMPI DUP8 DUP6 ADD MLOAD PUSH1 0x0 NOT PUSH1 0x3 DUP9 SWAP1 SHL PUSH1 0xF8 AND SHR NOT AND DUP2 SSTORE JUMPDEST POP POP POP POP POP PUSH1 0x1 SWAP1 DUP2 SHL ADD SWAP1 SSTORE POP JUMP JUMPDEST PUSH2 0x6F9 DUP1 PUSH3 0x306 PUSH1 0x0 CODECOPY PUSH1 0x0 RETURN INVALID PUSH1 0x80 PUSH1 0x40 MSTORE CALLVALUE DUP1 ISZERO PUSH2 0x10 JUMPI PUSH1 0x0 DUP1 REVERT JUMPDEST POP PUSH1 0x4 CALLDATASIZE LT PUSH2 0xA9 JUMPI PUSH1 0x0 CALLDATALOAD PUSH1 0xE0 SHR DUP1 PUSH4 0x42966C68 GT PUSH2 0x71 JUMPI DUP1 PUSH4 0x42966C68 EQ PUSH2 0x138 JUMPI DUP1 PUSH4 0x70A08231 EQ PUSH2 0x14D JUMPI DUP1 PUSH4 0x95D89B41 EQ PUSH2 0x16D JUMPI DUP1 PUSH4 0xA0712D68 EQ PUSH2 0x175 JUMPI DUP1 PUSH4 0xA9059CBB EQ PUSH2 0x188 JUMPI DUP1 PUSH4 0xDD62ED3E EQ PUSH2 0x19B JUMPI PUSH1 0x0 DUP1 REVERT JUMPDEST DUP1 PUSH4 0x6FDDE03 EQ PUSH2 0xAE JUMPI DUP1 PUSH4 0x95EA7B3 EQ PUSH2 0xCC JUMPI DUP1 PUSH4 0x18160DDD EQ PUSH2 0xEF JUMPI DUP1 PUSH4 0x23B872DD EQ PUSH2 0x106 JUMPI DUP1 PUSH4 0x313CE567 EQ PUSH2 0x119 JUMPI JUMPDEST PUSH1 0x0 DUP1 REVERT JUMPDEST PUSH2 0xB6 PUSH2 0x1C6 JUMP JUMPDEST PUSH1 0x40 MLOAD PUSH2 0xC3 SWAP2 SWAP1 PUSH2 0x4EE JUMP JUMPDEST PUSH1 0x40 MLOAD DUP1 SWAP2 SUB SWAP1 RETURN JUMPDEST PUSH2 0xDF PUSH2 0xDA CALLDATASIZE PUSH1 0x4 PUSH2 0x559 JUMP JUMPDEST PUSH2 0x254 JUMP JUMPDEST PUSH1 0x40 MLOAD SWAP1 ISZERO ISZERO DUP2 MSTORE PUSH1 0x20 ADD PUSH2 0xC3 JUMP JUMPDEST PUSH2 0xF8 PUSH1 0x2 SLOAD DUP2 JUMP JUMPDEST PUSH1 0x40 MLOAD SWAP1 DUP2 MSTORE PUSH1 0x20 ADD PUSH2 0xC3 JUMP JUMPDEST PUSH2 0xDF PUSH2 0x114 CALLDATASIZE PUSH1 0x4 PUSH2 0x583 JUMP JUMPDEST PUSH2 0x2C1 JUMP JUMPDEST PUSH1 0x5 SLOAD PUSH2 0x126 SWAP1 PUSH1 0xFF AND DUP2 JUMP JUMPDEST PUSH1 0x40 MLOAD PUSH1 0xFF SWAP1 SWAP2 AND DUP2 MSTORE PUSH1 0x20 ADD PUSH2 0xC3 JUMP JUMPDEST PUSH2 0x14B PUSH2 0x146 CALLDATASIZE PUSH1 0x4 PUSH2 0x5BF JUMP JUMPDEST PUSH2 0x39C JUMP JUMPDEST STOP JUMPDEST PUSH2 0xF8 PUSH2 0x15B CALLDATASIZE PUSH1 0x4 PUSH2 0x5D8 JUMP JUMPDEST PUSH1 0x0 PUSH1 0x20 DUP2 SWAP1 MSTORE SWAP1 DUP2 MSTORE PUSH1 0x40 SWAP1 KECCAK256 SLOAD DUP2 JUMP JUMPDEST PUSH2 0xB6 PUSH2 0x403 JUMP JUMPDEST PUSH2 0x14B PUSH2 0x183 CALLDATASIZE PUSH1 0x4 PUSH2 0x5BF JUMP JUMPDEST PUSH2 0x410 JUMP JUMPDEST PUSH2 0xDF PUSH2 0x196 CALLDATASIZE PUSH1 0x4 PUSH2 0x559 JUMP JUMPDEST PUSH2 0x470 JUMP JUMPDEST PUSH2 0xF8 PUSH2 0x1A9 CALLDATASIZE PUSH1 0x4 PUSH2 0x5FA JUMP JUMPDEST PUSH1 0x1 PUSH1 0x20 SWAP1 DUP2 MSTORE PUSH1 0x0 SWAP3 DUP4 MSTORE PUSH1 0x40 DUP1 DUP5 KECCAK256 SWAP1 SWAP2 MSTORE SWAP1 DUP3 MSTORE SWAP1 KECCAK256 SLOAD DUP2 JUMP JUMPDEST PUSH1 0x3 DUP1 SLOAD PUSH2 0x1D3 SWAP1 PUSH2 0x62D JUMP JUMPDEST DUP1 PUSH1 0x1F ADD PUSH1 0x20 DUP1 SWAP2 DIV MUL PUSH1 0x20 ADD PUSH1 0x40 MLOAD SWAP1 DUP2 ADD PUSH1 0x40 MSTORE DUP1 SWAP3 SWAP2 SWAP1 DUP2 DUP2 MSTORE PUSH1 0x20 ADD DUP3 DUP1 SLOAD PUSH2 0x1FF SWAP1 PUSH2 0x62D JUMP JUMPDEST DUP1 ISZERO PUSH2 0x24C JUMPI DUP1 PUSH1 0x1F LT PUSH2 0x221 JUMPI PUSH2 0x100 DUP1 DUP4 SLOAD DIV MUL DUP4 MSTORE SWAP2 PUSH1 0x20 ADD SWAP2 PUSH2 0x24C JUMP JUMPDEST DUP3 ADD SWAP2 SWAP1 PUSH1 0x0 MSTORE PUSH1 0x20 PUSH1 0x0 KECCAK256 SWAP1 JUMPDEST DUP2 SLOAD DUP2 MSTORE SWAP1 PUSH1 0x1 ADD SWAP1 PUSH1 0x20 ADD DUP1 DUP4 GT PUSH2 0x22F JUMPI DUP3 SWAP1 SUB PUSH1 0x1F AND DUP3 ADD SWAP2 JUMPDEST POP POP POP POP POP DUP2 JUMP JUMPDEST CALLER PUSH1 0x0 DUP2 DUP2 MSTORE PUSH1 0x1 PUSH1 0x20 SWAP1 DUP2 MSTORE PUSH1 0x40 DUP1 DUP4 KECCAK256 PUSH1 0x1 PUSH1 0x1 PUSH1 0xA0 SHL SUB DUP8 AND DUP1 DUP6 MSTORE SWAP3 MSTORE DUP1 DUP4 KECCAK256 DUP6 SWAP1 SSTORE MLOAD SWAP2 SWAP3 SWAP1 SWAP2 PUSH32 0x8C5BE1E5EBEC7D5BD14F71427D1E84F3DD0314C0F7B2291E5B200AC8C7C3B925 SWAP1 PUSH2 0x2AF SWAP1 DUP7 DUP2 MSTORE PUSH1 0x20 ADD SWAP1 JUMP JUMPDEST PUSH1 0x40 MLOAD DUP1 SWAP2 SUB SWAP1 LOG3 POP PUSH1 0x1 JUMPDEST SWAP3 SWAP2 POP POP JUMP JUMPDEST PUSH1 0x1 PUSH1 0x1 PUSH1 0xA0 SHL SUB DUP4 AND PUSH1 0x0 SWAP1 DUP2 MSTORE PUSH1 0x1 PUSH1 0x20 SWAP1 DUP2 MSTORE PUSH1 0x40 DUP1 DUP4 KECCAK256 CALLER DUP5 MSTORE SWAP1 SWAP2 MSTORE DUP2 KECCAK256 DUP1 SLOAD DUP4 SWAP2 SWAP1 DUP4 SWAP1 PUSH2 0x2F6 SWAP1 DUP5 SWAP1 PUSH2 0x67D JUMP JUMPDEST SWAP1 SWAP2 SSTORE POP POP PUSH1 0x1 PUSH1 0x1 PUSH1 0xA0 SHL SUB DUP5 AND PUSH1 0x0 SWAP1 DUP2 MSTORE PUSH1 0x20 DUP2 SWAP1 MSTORE PUSH1 0x40 DUP2 KECCAK256 DUP1 SLOAD DUP5 SWAP3 SWAP1 PUSH2 0x323 SWAP1 DUP5 SWAP1 PUSH2 0x67D JUMP JUMPDEST SWAP1 SWAP2 SSTORE POP POP PUSH1 0x1 PUSH1 0x1 PUSH1 0xA0 SHL SUB DUP4 AND PUSH1 0x0 SWAP1 DUP2 MSTORE PUSH1 0x20 DUP2 SWAP1 MSTORE PUSH1 0x40 DUP2 KECCAK256 DUP1 SLOAD DUP5 SWAP3 SWAP1 PUSH2 0x350 SWAP1 DUP5 SWAP1 PUSH2 0x690 JUMP JUMPDEST SWAP3 POP POP DUP2 SWAP1 SSTORE POP DUP3 PUSH1 0x1 PUSH1 0x1 PUSH1 0xA0 SHL SUB AND DUP5 PUSH1 0x1 PUSH1 0x1 PUSH1 0xA0 SHL SUB AND PUSH1 0x0 DUP1 MLOAD PUSH1 0x20 PUSH2 0x6A4 DUP4 CODECOPY DUP2 MLOAD SWAP2 MSTORE DUP5 PUSH1 0x40 MLOAD PUSH2 0x38A SWAP2 DUP2 MSTORE PUSH1 0x20 ADD SWAP1 JUMP JUMPDEST PUSH1 0x40 MLOAD DUP1 SWAP2 SUB SWAP1 LOG3 POP PUSH1 0x1 SWAP4 SWAP3 POP POP POP JUMP JUMPDEST CALLER PUSH1 0x0 SWAP1 DUP2 MSTORE PUSH1 0x20 DUP2 SWAP1 MSTORE PUSH1 0x40 DUP2 KECCAK256 DUP1 SLOAD DUP4 SWAP3 SWAP1 PUSH2 0x3BB SWAP1 DUP5 SWAP1 PUSH2 0x67D JUMP JUMPDEST SWAP3 POP POP DUP2 SWAP1 SSTORE POP DUP1 PUSH1 0x2 PUSH1 0x0 DUP3 DUP3 SLOAD PUSH2 0x3D4 SWAP2 SWAP1 PUSH2 0x67D JUMP JUMPDEST SWAP1 SWAP2 SSTORE POP POP PUSH1 0x40 MLOAD DUP2 DUP2 MSTORE PUSH1 0x0 SWAP1 CALLER SWAP1 PUSH1 0x0 DUP1 MLOAD PUSH1 0x20 PUSH2 0x6A4 DUP4 CODECOPY DUP2 MLOAD SWAP2 MSTORE SWAP1 PUSH1 0x20 ADD JUMPDEST PUSH1 0x40 MLOAD DUP1 SWAP2 SUB SWAP1 LOG3 POP JUMP JUMPDEST PUSH1 0x4 DUP1 SLOAD PUSH2 0x1D3 SWAP1 PUSH2 0x62D JUMP JUMPDEST CALLER PUSH1 0x0 SWAP1 DUP2 MSTORE PUSH1 0x20 DUP2 SWAP1 MSTORE PUSH1 0x40 DUP2 KECCAK256 DUP1 SLOAD DUP4 SWAP3 SWAP1 PUSH2 0x42F SWAP1 DUP5 SWAP1 PUSH2 0x690 JUMP JUMPDEST SWAP3 POP POP DUP2 SWAP1 SSTORE POP DUP1 PUSH1 0x2 PUSH1 0x0 DUP3 DUP3 SLOAD PUSH2 0x448 SWAP2 SWAP1 PUSH2 0x690 JUMP JUMPDEST SWAP1 SWAP2 SSTORE POP POP PUSH1 0x40 MLOAD DUP2 DUP2 MSTORE CALLER SWAP1 PUSH1 0x0 SWAP1 PUSH1 0x0 DUP1 MLOAD PUSH1 0x20 PUSH2 0x6A4 DUP4 CODECOPY DUP2 MLOAD SWAP2 MSTORE SWAP1 PUSH1 0x20 ADD PUSH2 0x3F8 JUMP JUMPDEST CALLER PUSH1 0x0 SWAP1 DUP2 MSTORE PUSH1 0x20 DUP2 SWAP1 MSTORE PUSH1 0x40 DUP2 KECCAK256 DUP1 SLOAD DUP4 SWAP2 SWAP1 DUP4 SWAP1 PUSH2 0x491 SWAP1 DUP5 SWAP1 PUSH2 0x67D JUMP JUMPDEST SWAP1 SWAP2 SSTORE POP POP PUSH1 0x1 PUSH1 0x1 PUSH1 0xA0 SHL SUB DUP4 AND PUSH1 0x0 SWAP1 DUP2 MSTORE PUSH1 0x20 DUP2 SWAP1 MSTORE PUSH1 0x40 DUP2 KECCAK256 DUP1 SLOAD DUP5 SWAP3 SWAP1 PUSH2 0x4BE SWAP1 DUP5 SWAP1 PUSH2 0x690 JUMP JUMPDEST SWAP1 SWAP2 SSTORE POP POP PUSH1 0x40 MLOAD DUP3 DUP2 MSTORE PUSH1 0x1 PUSH1 0x1 PUSH1 0xA0 SHL SUB DUP5 AND SWAP1 CALLER SWAP1 PUSH1 0x0 DUP1 MLOAD PUSH1 0x20 PUSH2 0x6A4 DUP4 CODECOPY DUP2 MLOAD SWAP2 MSTORE SWAP1 PUSH1 0x20 ADD PUSH2 0x2AF JUMP JUMPDEST PUSH1 0x0 PUSH1 0x20 DUP1 DUP4 MSTORE DUP4 MLOAD DUP1 PUSH1 0x20 DUP6 ADD MSTORE PUSH1 0x0 JUMPDEST DUP2 DUP2 LT ISZERO PUSH2 0x51C JUMPI DUP6 DUP2 ADD DUP4 ADD MLOAD DUP6 DUP3 ADD PUSH1 0x40 ADD MSTORE DUP3 ADD PUSH2 0x500 JUMP JUMPDEST POP PUSH1 0x0 PUSH1 0x40 DUP3 DUP7 ADD ADD MSTORE PUSH1 0x40 PUSH1 0x1F NOT PUSH1 0x1F DUP4 ADD AND DUP6 ADD ADD SWAP3 POP POP POP SWAP3 SWAP2 POP POP JUMP JUMPDEST DUP1 CALLDATALOAD PUSH1 0x1 PUSH1 0x1 PUSH1 0xA0 SHL SUB DUP2 AND DUP2 EQ PUSH2 0x554 JUMPI PUSH1 0x0 DUP1 REVERT JUMPDEST SWAP2 SWAP1 POP JUMP JUMPDEST PUSH1 0x0 DUP1 PUSH1 0x40 DUP4 DUP6 SUB SLT ISZERO PUSH2 0x56C JUMPI PUSH1 0x0 DUP1 REVERT JUMPDEST PUSH2 0x575 DUP4 PUSH2 0x53D JUMP JUMPDEST SWAP5 PUSH1 0x20 SWAP4 SWAP1 SWAP4 ADD CALLDATALOAD SWAP4 POP POP POP JUMP JUMPDEST PUSH1 0x0 DUP1 PUSH1 0x0 PUSH1 0x60 DUP5 DUP7 SUB SLT ISZERO PUSH2 0x598 JUMPI PUSH1 0x0 DUP1 REVERT JUMPDEST PUSH2 0x5A1 DUP5 PUSH2 0x53D JUMP JUMPDEST SWAP3 POP PUSH2 0x5AF PUSH1 0x20 DUP6 ADD PUSH2 0x53D JUMP JUMPDEST SWAP2 POP PUSH1 0x40 DUP5 ADD CALLDATALOAD SWAP1 POP SWAP3 POP SWAP3 POP SWAP3 JUMP JUMPDEST PUSH1 0x0 PUSH1 0x20 DUP3 DUP5 SUB SLT ISZERO PUSH2 0x5D1 JUMPI PUSH1 0x0 DUP1 REVERT JUMPDEST POP CALLDATALOAD SWAP2 SWAP1 POP JUMP JUMPDEST PUSH1 0x0 PUSH1 0x20 DUP3 DUP5 SUB SLT ISZERO PUSH2 0x5EA JUMPI PUSH1 0x0 DUP1 REVERT JUMPDEST PUSH2 0x5F3 DUP3 PUSH2 0x53D JUMP JUMPDEST SWAP4 SWAP3 POP POP POP JUMP JUMPDEST PUSH1 0x0 DUP1 PUSH1 0x40 DUP4 DUP6 SUB SLT ISZERO PUSH2 0x60D JUMPI PUSH1 0x0 DUP1 REVERT JUMPDEST PUSH2 0x616 DUP4 PUSH2 0x53D JUMP JUMPDEST SWAP2 POP PUSH2 0x624 PUSH1 0x20 DUP5 ADD PUSH2 0x53D JUMP JUMPDEST SWAP1 POP SWAP3 POP SWAP3 SWAP1 POP JUMP JUMPDEST PUSH1 0x1 DUP2 DUP2 SHR SWAP1 DUP3 AND DUP1 PUSH2 0x641 JUMPI PUSH1 0x7F DUP3 AND SWAP2 POP JUMPDEST PUSH1 0x20 DUP3 LT DUP2 SUB PUSH2 0x661 JUMPI PUSH4 0x4E487B71 PUSH1 0xE0 SHL PUSH1 0x0 MSTORE PUSH1 0x22 PUSH1 0x4 MSTORE PUSH1 0x24 PUSH1 0x0 REVERT JUMPDEST POP SWAP2 SWAP1 POP JUMP JUMPDEST PUSH4 0x4E487B71 PUSH1 0xE0 SHL PUSH1 0x0 MSTORE PUSH1 0x11 PUSH1 0x4 MSTORE PUSH1 0x24 PUSH1 0x0 REVERT JUMPDEST DUP2 DUP2 SUB DUP2 DUP2 GT ISZERO PUSH2 0x2BB JUMPI PUSH2 0x2BB PUSH2 0x667 JUMP JUMPDEST DUP1 DUP3 ADD DUP1 DUP3 GT ISZERO PUSH2 0x2BB JUMPI PUSH2 0x2BB PUSH2 0x667 JUMP INVALID 0xDD CALLCODE MSTORE 0xAD SHL 0xE2 0xC8 SWAP12 PUSH10 0xC2B068FC378DAA952BA7 CALL PUSH4 0xC4A11628 CREATE2 GAS 0x4D CREATE2 0x23 0xB3 0xEF LOG2 PUSH5 0x6970667358 0x22 SLT KECCAK256 DUP1 0xAB MCOPY 0xD4 0xEB 0xFC JUMPI 0xB5 0xEB EQ SWAP14 0xE 0xD 0xD5 CODESIZE BLOCKHASH 0xA8 PUSH3 0xE0B334 CHAINID DUP4 PUSH14 0x8C731669406CA66264736F6C6343 STOP ADDMOD XOR STOP CALLER "
				},
				"gasEstimates": {
					"creation": {
						"codeDepositCost": "357000",
						"executionCost": "infinite",
						"totalCost": "infinite"
					},
					"external": {
						"allowance(address,address)": "infinite",
						"approve(address,uint256)": "24523",
						"balanceOf(address)": "2544",
						"burn(uint256)": "infinite",
						"decimals()": "2402",
						"mint(uint256)": "infinite",
						"name()": "infinite",
						"symbol()": "infinite",
						"totalSupply()": "2340",
						"transfer(address,uint256)": "infinite",
						"transferFrom(address,address,uint256)": "infinite"
					}
				},
				"methodIdentifiers": {
					"allowance(address,address)": "dd62ed3e",
					"approve(address,uint256)": "095ea7b3",
					"balanceOf(address)": "70a08231",
					"burn(uint256)": "42966c68",
					"decimals()": "313ce567",
					"mint(uint256)": "a0712d68",
					"name()": "06fdde03",
					"symbol()": "95d89b41",
					"totalSupply()": "18160ddd",
					"transfer(address,uint256)": "a9059cbb",
					"transferFrom(address,address,uint256)": "23b872dd"
				}
			},
			"storageLayout": {
				"storage": [
					{
						"astId": 75,
						"contract": "ERC20.sol:ERC20",
						"label": "balanceOf",
						"offset": 0,
						"slot": "0",
						"type": "t_mapping(t_address,t_uint256)"
					},
					{
						"astId": 82,
						"contract": "ERC20.sol:ERC20",
						"label": "allowance",
						"offset": 0,
						"slot": "1",
						"type": "t_mapping(t_address,t_mapping(t_address,t_uint256))"
					},
					{
						"astId": 85,
						"contract": "ERC20.sol:ERC20",
						"label": "totalSupply",
						"offset": 0,
						"slot": "2",
						"type": "t_uint256"
					},
					{
						"astId": 87,
						"contract": "ERC20.sol:ERC20",
						"label": "name",
						"offset": 0,
						"slot": "3",
						"type": "t_string_storage"
					},
					{
						"astId": 89,
						"contract": "ERC20.sol:ERC20",
						"label": "symbol",
						"offset": 0,
						"slot": "4",
						"type": "t_string_storage"
					},
					{
						"astId": 92,
						"contract": "ERC20.sol:ERC20",
						"label": "decimals",
						"offset": 0,
						"slot": "5",
						"type": "t_uint8"
					}
				],
				"types": {
					"t_address": {
						"encoding": "inplace",
						"label": "address",
						"numberOfBytes": "20"
					},
					"t_mapping(t_address,t_mapping(t_address,t_uint256))": {
						"encoding": "mapping",
						"key": "t_address",
						"label": "mapping(address => mapping(address => uint256))",
						"numberOfBytes": "32",
						"value": "t_mapping(t_address,t_uint256)"
					},
					"t_mapping(t_address,t_uint256)": {
						"encoding": "mapping",
						"key": "t_address",
						"label": "mapping(address => uint256)",
						"numberOfBytes": "32",
						"value": "t_uint256"
					},
					"t_string_storage": {
						"encoding": "bytes",
						"label": "string",
						"numberOfBytes": "32"
					},
					"t_uint256": {
						"encoding": "inplace",
						"label": "uint256",
						"numberOfBytes": "32"
					},
					"t_uint8": {
						"encoding": "inplace",
						"label": "uint8",
						"numberOfBytes": "1"
					}
				}
			},
			"userdoc": {
				"kind": "user",
				"methods": {},
				"version": 1
			}
		}
	}
}